{
  "transactions": [
    {
      "hash": "0x946fdf73873edfcdee8ae3cd9af439c4e6d8a75e9e6208cd5be06788eb4511b1",
      "transactionType": "CALL",
      "contractName": null,
      "contractAddress": "0xce9f80a0dcd51fb3dd4f0d6bec3afdcaea10c912",
      "function": "setInterestRouter(uint256,address)",
      "arguments": [
        "0",
        "0x6c6739251d35f88aDe886eEF5Db439d0129CA61a"
      ],
      "transaction": {
        "from": "0xa7f74ae7c467764b63574369377d1b34b193a8ed",
        "to": "0xce9f80a0dcd51fb3dd4f0d6bec3afdcaea10c912",
        "gas": "0x181bf",
        "value": "0x0",
        "input": "0x0002ad2f00000000000000000000000000000000000000000000000000000000000000000000000000000000000000006c6739251d35f88ade886eef5db439d0129ca61a",
        "nonce": "0xb3",
        "chainId": "0x783"
      },
      "additionalContracts": [],
      "isFixedGasLimit": false
    },
    {
      "hash": "0x66f7271cceda4035197d566bc19e49d891c23622595e7b6cc55183f4af6ed9e5",
      "transactionType": "CALL",
      "contractName": null,
      "contractAddress": "0xce9f80a0dcd51fb3dd4f0d6bec3afdcaea10c912",
      "function": "setInterestRouter(uint256,address)",
      "arguments": [
        "1",
        "0x6c6739251d35f88aDe886eEF5Db439d0129CA61a"
      ],
      "transaction": {
        "from": "0xa7f74ae7c467764b63574369377d1b34b193a8ed",
        "to": "0xce9f80a0dcd51fb3dd4f0d6bec3afdcaea10c912",
        "gas": "0x16c61",
        "value": "0x0",
        "input": "0x0002ad2f00000000000000000000000000000000000000000000000000000000000000010000000000000000000000006c6739251d35f88ade886eef5db439d0129ca61a",
        "nonce": "0xb4",
        "chainId": "0x783"
      },
      "additionalContracts": [],
      "isFixedGasLimit": false
    },
    {
      "hash": "0xfbe434e6b25ee44419b4d91a0d19af13f384bbf65f1a70f82eb50ee6d3ca8c1c",
      "transactionType": "CALL",
      "contractName": null,
      "contractAddress": "0xce9f80a0dcd51fb3dd4f0d6bec3afdcaea10c912",
      "function": "setInterestRouter(uint256,address)",
      "arguments": [
        "2",
        "0x6c6739251d35f88aDe886eEF5Db439d0129CA61a"
      ],
      "transaction": {
        "from": "0xa7f74ae7c467764b63574369377d1b34b193a8ed",
        "to": "0xce9f80a0dcd51fb3dd4f0d6bec3afdcaea10c912",
        "gas": "0x16c61",
        "value": "0x0",
        "input": "0x0002ad2f00000000000000000000000000000000000000000000000000000000000000020000000000000000000000006c6739251d35f88ade886eef5db439d0129ca61a",
        "nonce": "0xb5",
        "chainId": "0x783"
      },
      "additionalContracts": [],
      "isFixedGasLimit": false
    },
    {
      "hash": "0xbad46701993dd0e0ba04c5d25fc8f34d3deec51520fc0ebb4bc285ef5a4a6cdf",
      "transactionType": "CALL",
      "contractName": null,
      "contractAddress": "0xce9f80a0dcd51fb3dd4f0d6bec3afdcaea10c912",
      "function": "setInterestRouter(uint256,address)",
      "arguments": [
        "3",
        "0x6c6739251d35f88aDe886eEF5Db439d0129CA61a"
      ],
      "transaction": {
        "from": "0xa7f74ae7c467764b63574369377d1b34b193a8ed",
        "to": "0xce9f80a0dcd51fb3dd4f0d6bec3afdcaea10c912",
        "gas": "0x16c61",
        "value": "0x0",
        "input": "0x0002ad2f00000000000000000000000000000000000000000000000000000000000000030000000000000000000000006c6739251d35f88ade886eef5db439d0129ca61a",
        "nonce": "0xb6",
        "chainId": "0x783"
      },
      "additionalContracts": [],
      "isFixedGasLimit": false
    },
    {
      "hash": "0x69052409bf06a5373e7b6bffd70c42ebd967e5bf696a118431a3886f85ea6acf",
      "transactionType": "CALL",
      "contractName": null,
      "contractAddress": "0xce9f80a0dcd51fb3dd4f0d6bec3afdcaea10c912",
      "function": "setInterestRouter(uint256,address)",
      "arguments": [
        "4",
        "0x6c6739251d35f88aDe886eEF5Db439d0129CA61a"
      ],
      "transaction": {
        "from": "0xa7f74ae7c467764b63574369377d1b34b193a8ed",
        "to": "0xce9f80a0dcd51fb3dd4f0d6bec3afdcaea10c912",
        "gas": "0x16c61",
        "value": "0x0",
        "input": "0x0002ad2f00000000000000000000000000000000000000000000000000000000000000040000000000000000000000006c6739251d35f88ade886eef5db439d0129ca61a",
        "nonce": "0xb7",
        "chainId": "0x783"
      },
      "additionalContracts": [],
      "isFixedGasLimit": false
    },
    {
      "hash": "0xf1509b93e2caf583e60a5e65ca9f6dc3ef291c283236eb17e094efd042a0f9e7",
      "transactionType": "CALL",
      "contractName": null,
      "contractAddress": "0x55db4a872d38eda312123e23f1c8135ee0e745ca",
      "function": "grantRole(uint64,address,uint32)",
      "arguments": [
        "0",
        "0x7bBC892828f01c79d6b5FFcfb637be32FE01D1BE",
        "7200"
      ],
      "transaction": {
        "from": "0xa7f74ae7c467764b63574369377d1b34b193a8ed",
        "to": "0x55db4a872d38eda312123e23f1c8135ee0e745ca",
        "gas": "0x145f4",
        "value": "0x0",
        "input": "0x25c471a000000000000000000000000000000000000000000000000000000000000000000000000000000000000000007bbc892828f01c79d6b5ffcfb637be32fe01d1be0000000000000000000000000000000000000000000000000000000000001c20",
        "nonce": "0xb8",
        "chainId": "0x783"
      },
      "additionalContracts": [],
      "isFixedGasLimit": false
    },
    {
      "hash": "0x3453b1c369a5dd76b7f74dc0161e1163e785234d42b91344e7718e65f6eccff2",
      "transactionType": "CALL",
      "contractName": null,
      "contractAddress": "0x55db4a872d38eda312123e23f1c8135ee0e745ca",
      "function": "setGrantDelay(uint64,uint32)",
      "arguments": [
        "0",
        "2592000"
      ],
      "transaction": {
        "from": "0xa7f74ae7c467764b63574369377d1b34b193a8ed",
        "to": "0x55db4a872d38eda312123e23f1c8135ee0e745ca",
        "gas": "0x12e7e",
        "value": "0x0",
        "input": "0xa64d95ce00000000000000000000000000000000000000000000000000000000000000000000000000000000000000000000000000000000000000000000000000278d00",
        "nonce": "0xb9",
        "chainId": "0x783"
      },
      "additionalContracts": [],
      "isFixedGasLimit": false
    },
    {
      "hash": "0x173b8a45d3b97b9c04f9a2941619a1fc2d8ce113e7288e78877ad906000967de",
      "transactionType": "CALL",
      "contractName": null,
      "contractAddress": "0x55db4a872d38eda312123e23f1c8135ee0e745ca",
      "function": "setGrantDelay(uint64,uint32)",
      "arguments": [
        "1",
        "0"
      ],
      "transaction": {
        "from": "0xa7f74ae7c467764b63574369377d1b34b193a8ed",
        "to": "0x55db4a872d38eda312123e23f1c8135ee0e745ca",
        "gas": "0x12e6d",
        "value": "0x0",
        "input": "0xa64d95ce00000000000000000000000000000000000000000000000000000000000000010000000000000000000000000000000000000000000000000000000000000000",
        "nonce": "0xba",
        "chainId": "0x783"
      },
      "additionalContracts": [],
      "isFixedGasLimit": false
    },
    {
      "hash": "0x71c9a4abc2c17d0977a34d25bd1456a71259814f014b9e5011b57a944d6e8358",
      "transactionType": "CALL",
      "contractName": null,
      "contractAddress": "0x55db4a872d38eda312123e23f1c8135ee0e745ca",
      "function": "grantRole(uint64,address,uint32)",
      "arguments": [
        "1",
        "0x7bBC892828f01c79d6b5FFcfb637be32FE01D1BE",
        "0"
      ],
      "transaction": {
        "from": "0xa7f74ae7c467764b63574369377d1b34b193a8ed",
        "to": "0x55db4a872d38eda312123e23f1c8135ee0e745ca",
        "gas": "0x15910",
        "value": "0x0",
        "input": "0x25c471a000000000000000000000000000000000000000000000000000000000000000010000000000000000000000007bbc892828f01c79d6b5ffcfb637be32fe01d1be0000000000000000000000000000000000000000000000000000000000000000",
        "nonce": "0xbb",
        "chainId": "0x783"
      },
      "additionalContracts": [],
      "isFixedGasLimit": false
    },
    {
      "hash": "0x9983c5781a46355c48cc6d25b42185c5a9b555b57a066dddc051e10862e140c2",
      "transactionType": "CALL",
      "contractName": null,
      "contractAddress": "0x55db4a872d38eda312123e23f1c8135ee0e745ca",
      "function": "setGrantDelay(uint64,uint32)",
      "arguments": [
        "2",
        "0"
      ],
      "transaction": {
        "from": "0xa7f74ae7c467764b63574369377d1b34b193a8ed",
        "to": "0x55db4a872d38eda312123e23f1c8135ee0e745ca",
        "gas": "0x12e6d",
        "value": "0x0",
        "input": "0xa64d95ce00000000000000000000000000000000000000000000000000000000000000020000000000000000000000000000000000000000000000000000000000000000",
        "nonce": "0xbc",
        "chainId": "0x783"
      },
      "additionalContracts": [],
      "isFixedGasLimit": false
    },
    {
      "hash": "0xc7e8ff48babe6206efed3b1ac6efd2d6d141710c5bf8fe1a6275f941b08d46b1",
      "transactionType": "CALL",
      "contractName": null,
      "contractAddress": "0x55db4a872d38eda312123e23f1c8135ee0e745ca",
      "function": "grantRole(uint64,address,uint32)",
      "arguments": [
        "2",
        "0x7bBC892828f01c79d6b5FFcfb637be32FE01D1BE",
        "300"
      ],
      "transaction": {
        "from": "0xa7f74ae7c467764b63574369377d1b34b193a8ed",
        "to": "0x55db4a872d38eda312123e23f1c8135ee0e745ca",
        "gas": "0x15933",
        "value": "0x0",
        "input": "0x25c471a000000000000000000000000000000000000000000000000000000000000000020000000000000000000000007bbc892828f01c79d6b5ffcfb637be32fe01d1be000000000000000000000000000000000000000000000000000000000000012c",
        "nonce": "0xbd",
        "chainId": "0x783"
      },
      "additionalContracts": [],
      "isFixedGasLimit": false
    },
    {
      "hash": "0x9bf0f4ee70c3b422b0de7092b7041791a4f68128c6a7a6b8c31ae7d90e3e97d5",
      "transactionType": "CALL",
      "contractName": null,
      "contractAddress": "0x55db4a872d38eda312123e23f1c8135ee0e745ca",
      "function": "setGrantDelay(uint64,uint32)",
      "arguments": [
        "3",
        "0"
      ],
      "transaction": {
        "from": "0xa7f74ae7c467764b63574369377d1b34b193a8ed",
        "to": "0x55db4a872d38eda312123e23f1c8135ee0e745ca",
        "gas": "0x12e6d",
        "value": "0x0",
        "input": "0xa64d95ce00000000000000000000000000000000000000000000000000000000000000030000000000000000000000000000000000000000000000000000000000000000",
        "nonce": "0xbe",
        "chainId": "0x783"
      },
      "additionalContracts": [],
      "isFixedGasLimit": false
    },
    {
      "hash": "0x3620fdb867aa469af74f47aeda252198db6074278f5730982e39345886fd9e05",
      "transactionType": "CALL",
      "contractName": null,
      "contractAddress": "0x55db4a872d38eda312123e23f1c8135ee0e745ca",
      "function": "grantRole(uint64,address,uint32)",
      "arguments": [
        "3",
        "0x7bBC892828f01c79d6b5FFcfb637be32FE01D1BE",
        "172800"
      ],
      "transaction": {
        "from": "0xa7f74ae7c467764b63574369377d1b34b193a8ed",
        "to": "0x55db4a872d38eda312123e23f1c8135ee0e745ca",
        "gas": "0x15933",
        "value": "0x0",
        "input": "0x25c471a000000000000000000000000000000000000000000000000000000000000000030000000000000000000000007bbc892828f01c79d6b5ffcfb637be32fe01d1be000000000000000000000000000000000000000000000000000000000002a300",
        "nonce": "0xbf",
        "chainId": "0x783"
      },
      "additionalContracts": [],
      "isFixedGasLimit": false
    },
    {
      "hash": "0xab08e5b65af26806c4b9c5ff96adfb9e9bdabd5ba66ffaced842569943a5ec8e",
      "transactionType": "CALL",
      "contractName": null,
      "contractAddress": "0x55db4a872d38eda312123e23f1c8135ee0e745ca",
      "function": "setGrantDelay(uint64,uint32)",
      "arguments": [
        "4",
        "0"
      ],
      "transaction": {
        "from": "0xa7f74ae7c467764b63574369377d1b34b193a8ed",
        "to": "0x55db4a872d38eda312123e23f1c8135ee0e745ca",
        "gas": "0x12e6d",
        "value": "0x0",
        "input": "0xa64d95ce00000000000000000000000000000000000000000000000000000000000000040000000000000000000000000000000000000000000000000000000000000000",
        "nonce": "0xc0",
        "chainId": "0x783"
      },
      "additionalContracts": [],
      "isFixedGasLimit": false
    },
    {
      "hash": "0xdc9f53f4f0afd31d88bd5db9edd387fd124fb0c7fa5e932a9c1501c3c53be7f9",
      "transactionType": "CALL",
      "contractName": null,
      "contractAddress": "0x55db4a872d38eda312123e23f1c8135ee0e745ca",
      "function": "grantRole(uint64,address,uint32)",
      "arguments": [
        "4",
        "0x7bBC892828f01c79d6b5FFcfb637be32FE01D1BE",
        "604800"
      ],
      "transaction": {
        "from": "0xa7f74ae7c467764b63574369377d1b34b193a8ed",
        "to": "0x55db4a872d38eda312123e23f1c8135ee0e745ca",
        "gas": "0x14616",
        "value": "0x0",
        "input": "0x25c471a000000000000000000000000000000000000000000000000000000000000000040000000000000000000000007bbc892828f01c79d6b5ffcfb637be32fe01d1be0000000000000000000000000000000000000000000000000000000000093a80",
        "nonce": "0xc1",
        "chainId": "0x783"
      },
      "additionalContracts": [],
      "isFixedGasLimit": false
    },
    {
      "hash": "0x8d0ce2afeaf488ee26b0373c597968e7a05b3909fe3f14cd521cb3dcd54b3b6c",
      "transactionType": "CALL",
      "contractName": null,
      "contractAddress": "0x55db4a872d38eda312123e23f1c8135ee0e745ca",
      "function": "setTargetFunctionRole(address,bytes4[],uint64)",
      "arguments": [
        "0xcE9F80A0DCD51Fb3dd4f0d6BEC3AFDcaEA10c912",
        "[0x0b3c44d3]",
        "1"
      ],
      "transaction": {
        "from": "0xa7f74ae7c467764b63574369377d1b34b193a8ed",
        "to": "0x55db4a872d38eda312123e23f1c8135ee0e745ca",
        "gas": "0x140b2",
        "value": "0x0",
        "input": "0x08d6122d000000000000000000000000ce9f80a0dcd51fb3dd4f0d6bec3afdcaea10c9120000000000000000000000000000000000000000000000000000000000000060000000000000000000000000000000000000000000000000000000000000000100000000000000000000000000000000000000000000000000000000000000010b3c44d300000000000000000000000000000000000000000000000000000000",
        "nonce": "0xc2",
        "chainId": "0x783"
      },
      "additionalContracts": [],
      "isFixedGasLimit": false
    },
    {
      "hash": "0x5414285005ce73746567d531a5f32d133034be436887009a76f7c2b6d0ea59d2",
      "transactionType": "CALL",
      "contractName": null,
      "contractAddress": "0x55db4a872d38eda312123e23f1c8135ee0e745ca",
      "function": "setTargetFunctionRole(address,bytes4[],uint64)",
      "arguments": [
        "0xcE9F80A0DCD51Fb3dd4f0d6BEC3AFDcaEA10c912",
        "[0x230fe6e5]",
        "2"
      ],
      "transaction": {
        "from": "0xa7f74ae7c467764b63574369377d1b34b193a8ed",
        "to": "0x55db4a872d38eda312123e23f1c8135ee0e745ca",
        "gas": "0x140b2",
        "value": "0x0",
        "input": "0x08d6122d000000000000000000000000ce9f80a0dcd51fb3dd4f0d6bec3afdcaea10c912000000000000000000000000000000000000000000000000000000000000006000000000000000000000000000000000000000000000000000000000000000020000000000000000000000000000000000000000000000000000000000000001230fe6e500000000000000000000000000000000000000000000000000000000",
        "nonce": "0xc3",
        "chainId": "0x783"
      },
      "additionalContracts": [],
      "isFixedGasLimit": false
    },
    {
      "hash": "0x7de709eff667943f4c70f286b6a9242a22d534e6a8666e8ec23203eef1c2ed2f",
      "transactionType": "CALL",
      "contractName": null,
      "contractAddress": "0x55db4a872d38eda312123e23f1c8135ee0e745ca",
      "function": "setTargetFunctionRole(address,bytes4[],uint64)",
      "arguments": [
        "0xcE9F80A0DCD51Fb3dd4f0d6BEC3AFDcaEA10c912",
        "[0x59781034, 0x7d10dbff, 0x3a331022, 0xcc9ece64]",
        "3"
      ],
      "transaction": {
        "from": "0xa7f74ae7c467764b63574369377d1b34b193a8ed",
        "to": "0x55db4a872d38eda312123e23f1c8135ee0e745ca",
        "gas": "0x2fa11",
        "value": "0x0",
        "input": "0x08d6122d000000000000000000000000ce9f80a0dcd51fb3dd4f0d6bec3afdcaea10c91200000000000000000000000000000000000000000000000000000000000000600000000000000000000000000000000000000000000000000000000000000003000000000000000000000000000000000000000000000000000000000000000459781034000000000000000000000000000000000000000000000000000000007d10dbff000000000000000000000000000000000000000000000000000000003a33102200000000000000000000000000000000000000000000000000000000cc9ece6400000000000000000000000000000000000000000000000000000000",
        "nonce": "0xc4",
        "chainId": "0x783"
      },
      "additionalContracts": [],
      "isFixedGasLimit": false
    },
    {
      "hash": "0x8963ad3c334fdfa4ddb257d85dc843ba631d9b242c615dac2b00b8d2fd508eea",
      "transactionType": "CALL",
      "contractName": null,
      "contractAddress": "0x55db4a872d38eda312123e23f1c8135ee0e745ca",
      "function": "setTargetFunctionRole(address,bytes4[],uint64)",
      "arguments": [
        "0xcE9F80A0DCD51Fb3dd4f0d6BEC3AFDcaEA10c912",
        "[0xaa7fc7e5, 0x7f06d28d, 0x0002ad2f]",
        "4"
      ],
      "transaction": {
        "from": "0xa7f74ae7c467764b63574369377d1b34b193a8ed",
        "to": "0x55db4a872d38eda312123e23f1c8135ee0e745ca",
        "gas": "0x26d2a",
        "value": "0x0",
        "input": "0x08d6122d000000000000000000000000ce9f80a0dcd51fb3dd4f0d6bec3afdcaea10c912000000000000000000000000000000000000000000000000000000000000006000000000000000000000000000000000000000000000000000000000000000040000000000000000000000000000000000000000000000000000000000000003aa7fc7e5000000000000000000000000000000000000000000000000000000007f06d28d000000000000000000000000000000000000000000000000000000000002ad2f00000000000000000000000000000000000000000000000000000000",
        "nonce": "0xc5",
        "chainId": "0x783"
      },
      "additionalContracts": [],
      "isFixedGasLimit": false
    },
    {
      "hash": "0x10c7e30aa9bdeee44d7ea4b4c2fa8c32696ccf71671061741eca832e7ff25833",
      "transactionType": "CALL",
      "contractName": null,
      "contractAddress": "0x55db4a872d38eda312123e23f1c8135ee0e745ca",
      "function": "setTargetFunctionRole(address,bytes4[],uint64)",
      "arguments": [
        "0x7dE9dc432cc064a9f69B9E183163Fa7257FFd451",
        "[0xf2f65960, 0xf0aef31c]",
        "2"
      ],
      "transaction": {
        "from": "0xa7f74ae7c467764b63574369377d1b34b193a8ed",
        "to": "0x55db4a872d38eda312123e23f1c8135ee0e745ca",
        "gas": "0x1e066",
        "value": "0x0",
        "input": "0x08d6122d0000000000000000000000007de9dc432cc064a9f69b9e183163fa7257ffd451000000000000000000000000000000000000000000000000000000000000006000000000000000000000000000000000000000000000000000000000000000020000000000000000000000000000000000000000000000000000000000000002f2f6596000000000000000000000000000000000000000000000000000000000f0aef31c00000000000000000000000000000000000000000000000000000000",
        "nonce": "0xc6",
        "chainId": "0x783"
      },
      "additionalContracts": [],
      "isFixedGasLimit": false
    },
    {
      "hash": "0xf4b466cdfa204baa7f5d817459c3a0320640d0a880387c13cff32187195fe299",
      "transactionType": "CALL",
      "contractName": null,
      "contractAddress": "0x55db4a872d38eda312123e23f1c8135ee0e745ca",
      "function": "setTargetFunctionRole(address,bytes4[],uint64)",
      "arguments": [
        "0x0000bAa0b1678229863c0A941C1056b83a1955F5",
        "[0x4f1ef286]",
        "2"
      ],
      "transaction": {
        "from": "0xa7f74ae7c467764b63574369377d1b34b193a8ed",
        "to": "0x55db4a872d38eda312123e23f1c8135ee0e745ca",
        "gas": "0x14092",
        "value": "0x0",
        "input": "0x08d6122d0000000000000000000000000000baa0b1678229863c0a941c1056b83a1955f50000000000000000000000000000000000000000000000000000000000000060000000000000000000000000000000000000000000000000000000000000000200000000000000000000000000000000000000000000000000000000000000014f1ef28600000000000000000000000000000000000000000000000000000000",
        "nonce": "0xc7",
        "chainId": "0x783"
      },
      "additionalContracts": [],
      "isFixedGasLimit": false
    },
    {
      "hash": "0x27cfe0d47b07d18fe6f1c017502afe11529bda1b62b5f3b69b80a57d1705ad7c",
      "transactionType": "CALL",
      "contractName": null,
      "contractAddress": "0x55db4a872d38eda312123e23f1c8135ee0e745ca",
      "function": "setTargetFunctionRole(address,bytes4[],uint64)",
      "arguments": [
        "0xcE9F80A0DCD51Fb3dd4f0d6BEC3AFDcaEA10c912",
        "[0x4f1ef286]",
        "2"
      ],
      "transaction": {
        "from": "0xa7f74ae7c467764b63574369377d1b34b193a8ed",
        "to": "0x55db4a872d38eda312123e23f1c8135ee0e745ca",
        "gas": "0x140b2",
        "value": "0x0",
        "input": "0x08d6122d000000000000000000000000ce9f80a0dcd51fb3dd4f0d6bec3afdcaea10c9120000000000000000000000000000000000000000000000000000000000000060000000000000000000000000000000000000000000000000000000000000000200000000000000000000000000000000000000000000000000000000000000014f1ef28600000000000000000000000000000000000000000000000000000000",
        "nonce": "0xc8",
        "chainId": "0x783"
      },
      "additionalContracts": [],
      "isFixedGasLimit": false
    },
    {
      "hash": "0x3c29e53721f61cf7b80682cb3f0dad04349b45c8cdb98bc3b4815758cb29127e",
      "transactionType": "CALL",
      "contractName": null,
      "contractAddress": "0x55db4a872d38eda312123e23f1c8135ee0e745ca",
      "function": "setTargetFunctionRole(address,bytes4[],uint64)",
      "arguments": [
        "0xD25Df935BbBB87542B2f36Dc2e3D6c315D647509",
        "[0x4f1ef286]",
        "2"
      ],
      "transaction": {
        "from": "0xa7f74ae7c467764b63574369377d1b34b193a8ed",
        "to": "0x55db4a872d38eda312123e23f1c8135ee0e745ca",
        "gas": "0x140b2",
        "value": "0x0",
        "input": "0x08d6122d000000000000000000000000d25df935bbbb87542b2f36dc2e3d6c315d6475090000000000000000000000000000000000000000000000000000000000000060000000000000000000000000000000000000000000000000000000000000000200000000000000000000000000000000000000000000000000000000000000014f1ef28600000000000000000000000000000000000000000000000000000000",
        "nonce": "0xc9",
        "chainId": "0x783"
      },
      "additionalContracts": [],
      "isFixedGasLimit": false
    },
    {
      "hash": "0xc86b8773e63ea734ee6aea6c5a72c6c73f413153e1d243cca807b95b46eb9c55",
      "transactionType": "CALL",
      "contractName": null,
      "contractAddress": "0x55db4a872d38eda312123e23f1c8135ee0e745ca",
      "function": "setTargetFunctionRole(address,bytes4[],uint64)",
      "arguments": [
        "0x0c2C4017C1bf6e95aaF24b0f033cb6243a43fA2f",
        "[0x4f1ef286]",
        "2"
      ],
      "transaction": {
        "from": "0xa7f74ae7c467764b63574369377d1b34b193a8ed",
        "to": "0x55db4a872d38eda312123e23f1c8135ee0e745ca",
        "gas": "0x140b2",
        "value": "0x0",
        "input": "0x08d6122d0000000000000000000000000c2c4017c1bf6e95aaf24b0f033cb6243a43fa2f0000000000000000000000000000000000000000000000000000000000000060000000000000000000000000000000000000000000000000000000000000000200000000000000000000000000000000000000000000000000000000000000014f1ef28600000000000000000000000000000000000000000000000000000000",
        "nonce": "0xca",
        "chainId": "0x783"
      },
      "additionalContracts": [],
      "isFixedGasLimit": false
    },
    {
      "hash": "0x88b1f2554e090db3fdbff4d2ec2f51da9c0f41df639e9d7501c88303ca18ac17",
      "transactionType": "CALL",
      "contractName": null,
      "contractAddress": "0x55db4a872d38eda312123e23f1c8135ee0e745ca",
      "function": "revokeRole(uint64,address)",
      "arguments": [
        "0",
        "0xa7f74ae7C467764b63574369377D1b34b193a8Ed"
      ],
      "transaction": {
        "from": "0xa7f74ae7c467764b63574369377d1b34b193a8ed",
        "to": "0x55db4a872d38eda312123e23f1c8135ee0e745ca",
        "gas": "0xb8d1",
        "value": "0x0",
        "input": "0xb7d2b1620000000000000000000000000000000000000000000000000000000000000000000000000000000000000000a7f74ae7c467764b63574369377d1b34b193a8ed",
        "nonce": "0xcb",
        "chainId": "0x783"
      },
      "additionalContracts": [],
      "isFixedGasLimit": false
    }
  ],
  "receipts": [
    {
      "status": "0x1",
      "cumulativeGasUsed": "0x1b335",
      "logs": [
        {
          "address": "0xf709e16ceb143bd59d20a01163d2ede98148bf20",
          "topics": [
            "0xde670941405847a358aa2eeb6f5e0b3f77fef2dee57dabaaa18f3dfbcc727ac2"
          ],
          "data": "0x0000000000000000000000006c6739251d35f88ade886eef5db439d0129ca61a",
          "blockHash": "0x90f8d96038b5a510b39a3ce14ceaac9a6713de27f6bfdc9cf73d13eff3bff72c",
          "blockNumber": "0x6ef004",
          "transactionHash": "0x946fdf73873edfcdee8ae3cd9af439c4e6d8a75e9e6208cd5be06788eb4511b1",
          "transactionIndex": "0x1",
          "logIndex": "0x0",
          "removed": false
        }
      ],
      "logsBloom": "0x00000000000000008000000000000000000000000000000000000000000000000000000000000000000000000000000000000000000000000000000000000000000000000000000000000000000000000000000000000000000000000000000000000000000000000000000000000000000000000000000000000000000000000040000000000000000000000000000000000000000000000040000000000000000080000000000000000000800000000000000000000000000000000000000000000000000000000000000000000400000000000000000000000000000000000000000000000000000000000000000000000000000000000000000000000000",
      "type": "0x2",
      "transactionHash": "0x946fdf73873edfcdee8ae3cd9af439c4e6d8a75e9e6208cd5be06788eb4511b1",
      "transactionIndex": "0x1",
      "blockHash": "0x90f8d96038b5a510b39a3ce14ceaac9a6713de27f6bfdc9cf73d13eff3bff72c",
      "blockNumber": "0x6ef004",
      "gasUsed": "0x107c3",
      "effectiveGasPrice": "0x140",
      "from": "0xa7f74ae7c467764b63574369377d1b34b193a8ed",
      "to": "0xce9f80a0dcd51fb3dd4f0d6bec3afdcaea10c912",
      "contractAddress": null,
      "l1BaseFeeScalar": "0x558",
      "l1BlobBaseFee": "0x1",
      "l1BlobBaseFeeScalar": "0xc5fc5",
      "l1Fee": "0x2065f9316",
      "l1GasPrice": "0xecd475c5",
      "l1GasUsed": "0x640"
    },
    {
      "status": "0x1",
      "cumulativeGasUsed": "0x1b341",
      "logs": [
        {
          "address": "0x62b9ddeb8299e3c924510bf2b4edde4aa34b67f2",
          "topics": [
            "0xde670941405847a358aa2eeb6f5e0b3f77fef2dee57dabaaa18f3dfbcc727ac2"
          ],
          "data": "0x0000000000000000000000006c6739251d35f88ade886eef5db439d0129ca61a",
          "blockHash": "0x425707878428f6bb92b2a1ad37c5d297f702538ec6bfe3a78b49ce116a325d7b",
          "blockNumber": "0x6ef007",
          "transactionHash": "0x66f7271cceda4035197d566bc19e49d891c23622595e7b6cc55183f4af6ed9e5",
          "transactionIndex": "0x1",
          "logIndex": "0x0",
          "removed": false
        }
      ],
      "logsBloom": "0x00000000000000008000000000000000000000000000800000000000000000000000000000000000000000000000000000000000000000000000000000000000000000000000000000000000000000000000000000000000000000000000000000000000000000000000000000000000000000000000000000000000000000000040000000000000000000000000000000000000000000000040000000000000000000000000000000000100000001000000000000000000000000000000000000000000000000000000000000000000000000000000000000000000000000000000000000000000000000000000000000000000000000000000000000000000",
      "type": "0x2",
      "transactionHash": "0x66f7271cceda4035197d566bc19e49d891c23622595e7b6cc55183f4af6ed9e5",
      "transactionIndex": "0x1",
      "blockHash": "0x425707878428f6bb92b2a1ad37c5d297f702538ec6bfe3a78b49ce116a325d7b",
      "blockNumber": "0x6ef007",
      "gasUsed": "0x107cf",
      "effectiveGasPrice": "0x140",
      "from": "0xa7f74ae7c467764b63574369377d1b34b193a8ed",
      "to": "0xce9f80a0dcd51fb3dd4f0d6bec3afdcaea10c912",
      "contractAddress": null,
      "l1BaseFeeScalar": "0x558",
      "l1BlobBaseFee": "0x1",
      "l1BlobBaseFeeScalar": "0xc5fc5",
      "l1Fee": "0x2065f9316",
      "l1GasPrice": "0xecd475c5",
      "l1GasUsed": "0x640"
    },
    {
      "status": "0x1",
      "cumulativeGasUsed": "0x1b341",
      "logs": [
        {
          "address": "0xb102b2116e50b491dd53946f959c9260ec872110",
          "topics": [
            "0xde670941405847a358aa2eeb6f5e0b3f77fef2dee57dabaaa18f3dfbcc727ac2"
          ],
          "data": "0x0000000000000000000000006c6739251d35f88ade886eef5db439d0129ca61a",
          "blockHash": "0x3dda1b12dff56414ae1022e1a5bf00609ac71e659d9b7522e59c7248a65722f9",
          "blockNumber": "0x6ef00a",
          "transactionHash": "0xfbe434e6b25ee44419b4d91a0d19af13f384bbf65f1a70f82eb50ee6d3ca8c1c",
          "transactionIndex": "0x1",
          "logIndex": "0x0",
          "removed": false
        }
      ],
      "logsBloom": "0x00000000000000008000000000000000000000000000000000000000000000000000000000000000000000000000200000000000000000000000000000000000000000000000000000000000000000000000000000000000000000000000000000000000000000000000000000000000000000000000000000000000000000000040000000000000000000000000000000000000000000000040000000000000000000000000000000000000000000002000000000000000000000000000000000000000000000000000000000000000000000000000000000000000000000000000000000000040000000000000000000000000000000000000000000000000",
      "type": "0x2",
      "transactionHash": "0xfbe434e6b25ee44419b4d91a0d19af13f384bbf65f1a70f82eb50ee6d3ca8c1c",
      "transactionIndex": "0x1",
      "blockHash": "0x3dda1b12dff56414ae1022e1a5bf00609ac71e659d9b7522e59c7248a65722f9",
      "blockNumber": "0x6ef00a",
      "gasUsed": "0x107cf",
      "effectiveGasPrice": "0x140",
      "from": "0xa7f74ae7c467764b63574369377d1b34b193a8ed",
      "to": "0xce9f80a0dcd51fb3dd4f0d6bec3afdcaea10c912",
      "contractAddress": null,
      "l1BaseFeeScalar": "0x558",
      "l1BlobBaseFee": "0x1",
      "l1BlobBaseFeeScalar": "0xc5fc5",
      "l1Fee": "0x231b5faf6",
      "l1GasPrice": "0x100a12d16",
      "l1GasUsed": "0x640"
    },
    {
      "status": "0x1",
      "cumulativeGasUsed": "0x3bbb8",
      "logs": [
        {
          "address": "0xb7977a8dea3089fc0746889da247620cd7ad523e",
          "topics": [
            "0xde670941405847a358aa2eeb6f5e0b3f77fef2dee57dabaaa18f3dfbcc727ac2"
          ],
          "data": "0x0000000000000000000000006c6739251d35f88ade886eef5db439d0129ca61a",
          "blockHash": "0xc4b568d3202cf62435bc325ab0fa23eaf5f1cd3d23a7de13814d6991b06dd7a5",
          "blockNumber": "0x6ef00d",
          "transactionHash": "0xbad46701993dd0e0ba04c5d25fc8f34d3deec51520fc0ebb4bc285ef5a4a6cdf",
          "transactionIndex": "0x2",
          "logIndex": "0x3",
          "removed": false
        }
      ],
      "logsBloom": "0x00000000000000008000000000000000000000000000000000000000000000000000000000000000000000000000000000000002000000000000000000000000000000000000000000000000000000000000000000000000000000000000000000000000000000000000000000000000000000000000000000000000000000000040000000000000000000000000000000000000000000000040000000000000000000000000000000000000000000000000000000001000000000000000000020000000000000000000000000000000000000000000000000000000000000000000000000000000000000000000000000000000000000000000000000000000",
      "type": "0x2",
      "transactionHash": "0xbad46701993dd0e0ba04c5d25fc8f34d3deec51520fc0ebb4bc285ef5a4a6cdf",
      "transactionIndex": "0x2",
      "blockHash": "0xc4b568d3202cf62435bc325ab0fa23eaf5f1cd3d23a7de13814d6991b06dd7a5",
      "blockNumber": "0x6ef00d",
      "gasUsed": "0x107cf",
      "effectiveGasPrice": "0x140",
      "from": "0xa7f74ae7c467764b63574369377d1b34b193a8ed",
      "to": "0xce9f80a0dcd51fb3dd4f0d6bec3afdcaea10c912",
      "contractAddress": null,
      "l1BaseFeeScalar": "0x558",
      "l1BlobBaseFee": "0x1",
      "l1BlobBaseFeeScalar": "0xc5fc5",
      "l1Fee": "0x231b5faf6",
      "l1GasPrice": "0x100a12d16",
      "l1GasUsed": "0x640"
    },
    {
      "status": "0x1",
      "cumulativeGasUsed": "0x1b5029",
      "logs": [
        {
          "address": "0xe65e267ed1a0d45ee3d611792a97ec2527f76eda",
          "topics": [
            "0xde670941405847a358aa2eeb6f5e0b3f77fef2dee57dabaaa18f3dfbcc727ac2"
          ],
          "data": "0x0000000000000000000000006c6739251d35f88ade886eef5db439d0129ca61a",
          "blockHash": "0x001e8ecb0c4173d735c4258ea01628f29c3bee0234e22354fedcb3f40e648af2",
          "blockNumber": "0x6ef010",
          "transactionHash": "0x69052409bf06a5373e7b6bffd70c42ebd967e5bf696a118431a3886f85ea6acf",
          "transactionIndex": "0x2",
          "logIndex": "0x0",
          "removed": false
        }
      ],
      "logsBloom": "0x00000000000000008000000000000000000000000000000000000000000000000000000000000000000000000000000000000000000000000000000000000000000000000000000000000000000000002000000000000000000000000000000000000000000000000000000000000000000000000000000000000000000000000040000000000000000000000000000000000000000000000040200000000000000000000000000002000000000000000000000000000000000000000000000000000000000000000000000000000000000000000000000000000000000000000000000000000000000000000000000000000000000000000000000000000000",
      "type": "0x2",
      "transactionHash": "0x69052409bf06a5373e7b6bffd70c42ebd967e5bf696a118431a3886f85ea6acf",
      "transactionIndex": "0x2",
      "blockHash": "0x001e8ecb0c4173d735c4258ea01628f29c3bee0234e22354fedcb3f40e648af2",
      "blockNumber": "0x6ef010",
      "gasUsed": "0x107cf",
      "effectiveGasPrice": "0x140",
      "from": "0xa7f74ae7c467764b63574369377d1b34b193a8ed",
      "to": "0xce9f80a0dcd51fb3dd4f0d6bec3afdcaea10c912",
      "contractAddress": null,
      "l1BaseFeeScalar": "0x558",
      "l1BlobBaseFee": "0x1",
      "l1BlobBaseFeeScalar": "0xc5fc5",
      "l1Fee": "0x2210906da",
      "l1GasPrice": "0xf902d046",
      "l1GasUsed": "0x640"
    },
    {
      "status": "0x1",
      "cumulativeGasUsed": "0x1976f",
      "logs": [
        {
          "address": "0x55db4a872d38eda312123e23f1c8135ee0e745ca",
          "topics": [
            "0xf98448b987f1428e0e230e1f3c6e2ce15b5693eaf31827fbd0b1ec4b424ae7cf",
            "0x0000000000000000000000000000000000000000000000000000000000000000",
            "0x0000000000000000000000007bbc892828f01c79d6b5ffcfb637be32fe01d1be"
          ],
          "data": "0x0000000000000000000000000000000000000000000000000000000000001c20000000000000000000000000000000000000000000000000000000006824baa50000000000000000000000000000000000000000000000000000000000000001",
          "blockHash": "0xeea1930a4df3cccb5e643500e794a624dd954ff1adf0e6c83babb4b6a3c6bf21",
          "blockNumber": "0x6ef013",
          "transactionHash": "0xf1509b93e2caf583e60a5e65ca9f6dc3ef291c283236eb17e094efd042a0f9e7",
          "transactionIndex": "0x1",
          "logIndex": "0x0",
          "removed": false
        }
      ],
      "logsBloom": "0x00000000000000000000000000000000000000000000000000000000000000000000000000000000000000000001000000000000000000000000000000000000000000000000000000000000020001000000000000000000000000000000000000000000020000000000000000000800000000000000000000000000000000000000000000000000000000000000000008000010000000000000000000000000000000000000100000002000000000000000000000000008000000000000000000000000000000000000000000000000000000000000000000000000000020000000000000000000000000000000000000000000020000000000000000000000",
      "type": "0x2",
      "transactionHash": "0xf1509b93e2caf583e60a5e65ca9f6dc3ef291c283236eb17e094efd042a0f9e7",
      "transactionIndex": "0x1",
      "blockHash": "0xeea1930a4df3cccb5e643500e794a624dd954ff1adf0e6c83babb4b6a3c6bf21",
      "blockNumber": "0x6ef013",
      "gasUsed": "0xebfd",
      "effectiveGasPrice": "0x140",
      "from": "0xa7f74ae7c467764b63574369377d1b34b193a8ed",
      "to": "0x55db4a872d38eda312123e23f1c8135ee0e745ca",
      "contractAddress": null,
      "l1BaseFeeScalar": "0x558",
      "l1BlobBaseFee": "0x1",
      "l1BlobBaseFeeScalar": "0xc5fc5",
      "l1Fee": "0x2210906da",
      "l1GasPrice": "0xf902d046",
      "l1GasUsed": "0x640"
    },
    {
      "status": "0x1",
      "cumulativeGasUsed": "0x18672",
      "logs": [
        {
          "address": "0x55db4a872d38eda312123e23f1c8135ee0e745ca",
          "topics": [
            "0xfeb69018ee8b8fd50ea86348f1267d07673379f72cffdeccec63853ee8ce8b48",
            "0x0000000000000000000000000000000000000000000000000000000000000000"
          ],
          "data": "0x0000000000000000000000000000000000000000000000000000000000278d00000000000000000000000000000000000000000000000000000000006824baab",
          "blockHash": "0xec67053c043928b2003eb559f3c77311911a9ea2347c3b03634363fa385f1e87",
          "blockNumber": "0x6ef016",
          "transactionHash": "0x3453b1c369a5dd76b7f74dc0161e1163e785234d42b91344e7718e65f6eccff2",
          "transactionIndex": "0x1",
          "logIndex": "0x0",
          "removed": false
        }
      ],
      "logsBloom": "0x00000000000000000000000000000000000000000000000000000000000000000000000000000000000000000000000000000000000000000000000000000000000000000000000000000000020000000000000000000000000000000000000000000000020000000000008000000800000000000000000000010000000000000000000000000000000000000000000000000010000000000000000000000000000000000000100000000000000000000000000000000000000000000000000000000000000000020000000000000000000000000000000000000000000020000000000000000000000000000000000000000000000000000000000000000000",
      "type": "0x2",
      "transactionHash": "0x3453b1c369a5dd76b7f74dc0161e1163e785234d42b91344e7718e65f6eccff2",
      "transactionIndex": "0x1",
      "blockHash": "0xec67053c043928b2003eb559f3c77311911a9ea2347c3b03634363fa385f1e87",
      "blockNumber": "0x6ef016",
      "gasUsed": "0xdb00",
      "effectiveGasPrice": "0x140",
      "from": "0xa7f74ae7c467764b63574369377d1b34b193a8ed",
      "to": "0x55db4a872d38eda312123e23f1c8135ee0e745ca",
      "contractAddress": null,
      "l1BaseFeeScalar": "0x558",
      "l1BlobBaseFee": "0x1",
      "l1BlobBaseFeeScalar": "0xc5fc5",
      "l1Fee": "0x1fce14266",
      "l1GasPrice": "0xe87e1e61",
      "l1GasUsed": "0x640"
    },
    {
      "status": "0x1",
      "cumulativeGasUsed": "0x38b9d",
      "logs": [
        {
          "address": "0x55db4a872d38eda312123e23f1c8135ee0e745ca",
          "topics": [
            "0xfeb69018ee8b8fd50ea86348f1267d07673379f72cffdeccec63853ee8ce8b48",
            "0x0000000000000000000000000000000000000000000000000000000000000001"
          ],
          "data": "0x0000000000000000000000000000000000000000000000000000000000000000000000000000000000000000000000000000000000000000000000006824bab1",
          "blockHash": "0x8ff6dda644d4858991468389886437d443ff4680dbf3e95be0eb32a033fd23b0",
          "blockNumber": "0x6ef019",
          "transactionHash": "0x173b8a45d3b97b9c04f9a2941619a1fc2d8ce113e7288e78877ad906000967de",
          "transactionIndex": "0x2",
          "logIndex": "0x3",
          "removed": false
        }
      ],
      "logsBloom": "0x00000000000000000000000000000000000000000000000000000000000000000000000000000000000000000000000000000000000000000000000000040000000000000000000000000000020000000000000000040000000000000000000000000000000000000000008000000000000000000000000000010000000000000000000000000000000000000000000000000010000000000000000000000000000000000000100000000000000000000000000000000000000000000000000000000000000000020000000000000000000000000000000000000000000040000000000000000000000000000000000000000000000000000000000000000000",
      "type": "0x2",
      "transactionHash": "0x173b8a45d3b97b9c04f9a2941619a1fc2d8ce113e7288e78877ad906000967de",
      "transactionIndex": "0x2",
      "blockHash": "0x8ff6dda644d4858991468389886437d443ff4680dbf3e95be0eb32a033fd23b0",
      "blockNumber": "0x6ef019",
      "gasUsed": "0xdaf4",
      "effectiveGasPrice": "0x140",
      "from": "0xa7f74ae7c467764b63574369377d1b34b193a8ed",
      "to": "0x55db4a872d38eda312123e23f1c8135ee0e745ca",
      "contractAddress": null,
      "l1BaseFeeScalar": "0x558",
      "l1BlobBaseFee": "0x1",
      "l1BlobBaseFeeScalar": "0xc5fc5",
      "l1Fee": "0x1fce14266",
      "l1GasPrice": "0xe87e1e61",
      "l1GasUsed": "0x640"
    },
    {
      "status": "0x1",
      "cumulativeGasUsed": "0x19763",
      "logs": [
        {
          "address": "0x55db4a872d38eda312123e23f1c8135ee0e745ca",
          "topics": [
            "0xf98448b987f1428e0e230e1f3c6e2ce15b5693eaf31827fbd0b1ec4b424ae7cf",
            "0x0000000000000000000000000000000000000000000000000000000000000001",
            "0x0000000000000000000000007bbc892828f01c79d6b5ffcfb637be32fe01d1be"
          ],
          "data": "0x0000000000000000000000000000000000000000000000000000000000000000000000000000000000000000000000000000000000000000000000006824bab70000000000000000000000000000000000000000000000000000000000000001",
          "blockHash": "0xef6304e9390112f80316ad6798cb16e517feadd290300535fe9add0268fa5b9e",
          "blockNumber": "0x6ef01c",
          "transactionHash": "0x71c9a4abc2c17d0977a34d25bd1456a71259814f014b9e5011b57a944d6e8358",
          "transactionIndex": "0x1",
          "logIndex": "0x0",
          "removed": false
        }
      ],
      "logsBloom": "0x00000000000000000000000000000000000000000000000000000000000000000000000000000000000000000001000000000000000000000000000000040000000000000000000000000000020001000000000000040000000000000000000000000000000000000000000000000000000000000000000000000000000000000000000000000000000000000000000008000010000000000000000000000000000000000000100000002000000000000000000000000008000000000000000000000000000000000000000000000000000000000000000000000000000040000000000000000000000000000000000000000000020000000000000000000000",
      "type": "0x2",
      "transactionHash": "0x71c9a4abc2c17d0977a34d25bd1456a71259814f014b9e5011b57a944d6e8358",
      "transactionIndex": "0x1",
      "blockHash": "0xef6304e9390112f80316ad6798cb16e517feadd290300535fe9add0268fa5b9e",
      "blockNumber": "0x6ef01c",
      "gasUsed": "0xebf1",
      "effectiveGasPrice": "0x140",
      "from": "0xa7f74ae7c467764b63574369377d1b34b193a8ed",
      "to": "0x55db4a872d38eda312123e23f1c8135ee0e745ca",
      "contractAddress": null,
      "l1BaseFeeScalar": "0x558",
      "l1BlobBaseFee": "0x1",
      "l1BlobBaseFeeScalar": "0xc5fc5",
      "l1Fee": "0x1eb82e75a",
      "l1GasPrice": "0xe08eb4c8",
      "l1GasUsed": "0x640"
    },
    {
      "status": "0x1",
      "cumulativeGasUsed": "0x38edd",
      "logs": [
        {
          "address": "0x55db4a872d38eda312123e23f1c8135ee0e745ca",
          "topics": [
            "0xfeb69018ee8b8fd50ea86348f1267d07673379f72cffdeccec63853ee8ce8b48",
            "0x0000000000000000000000000000000000000000000000000000000000000002"
          ],
          "data": "0x0000000000000000000000000000000000000000000000000000000000000000000000000000000000000000000000000000000000000000000000006824babd",
          "blockHash": "0x472cfc85d6efe5fb95393e7cbbe4449444098999f5777698d760b7e01153b78c",
          "blockNumber": "0x6ef01f",
          "transactionHash": "0x9983c5781a46355c48cc6d25b42185c5a9b555b57a066dddc051e10862e140c2",
          "transactionIndex": "0x2",
          "logIndex": "0x3",
          "removed": false
        }
      ],
      "logsBloom": "0x04000000000000000000000000000000000000000000000000000000000000000000000000000000000000000000000000000000000000000000000000000000000000000000000000000000020000000000000000000000000000000000000000000000000000000000008000000000000000000000000000010000000000000000000000000000000000000000000000000010000000000000000000000000000000000000100000000100000000000000000000000000000000000000000000000000000000020000000000000000000000000000000000000000000000000000000000000000000000000000000000000000008000000000000000000000",
      "type": "0x2",
      "transactionHash": "0x9983c5781a46355c48cc6d25b42185c5a9b555b57a066dddc051e10862e140c2",
      "transactionIndex": "0x2",
      "blockHash": "0x472cfc85d6efe5fb95393e7cbbe4449444098999f5777698d760b7e01153b78c",
      "blockNumber": "0x6ef01f",
      "gasUsed": "0xdaf4",
      "effectiveGasPrice": "0x140",
      "from": "0xa7f74ae7c467764b63574369377d1b34b193a8ed",
      "to": "0x55db4a872d38eda312123e23f1c8135ee0e745ca",
      "contractAddress": null,
      "l1BaseFeeScalar": "0x558",
      "l1BlobBaseFee": "0x1",
      "l1BlobBaseFeeScalar": "0xc5fc5",
      "l1Fee": "0x1eb82e75a",
      "l1GasPrice": "0xe08eb4c8",
      "l1GasUsed": "0x640"
    },
    {
      "status": "0x1",
      "cumulativeGasUsed": "0x1977b",
      "logs": [
        {
          "address": "0x55db4a872d38eda312123e23f1c8135ee0e745ca",
          "topics": [
            "0xf98448b987f1428e0e230e1f3c6e2ce15b5693eaf31827fbd0b1ec4b424ae7cf",
            "0x0000000000000000000000000000000000000000000000000000000000000002",
            "0x0000000000000000000000007bbc892828f01c79d6b5ffcfb637be32fe01d1be"
          ],
          "data": "0x000000000000000000000000000000000000000000000000000000000000012c000000000000000000000000000000000000000000000000000000006824bac30000000000000000000000000000000000000000000000000000000000000001",
          "blockHash": "0x88d5aea5961a6337d6b18bb69f2dbfca7d9fa15b05aa396472826bff4ad689b1",
          "blockNumber": "0x6ef022",
          "transactionHash": "0xc7e8ff48babe6206efed3b1ac6efd2d6d141710c5bf8fe1a6275f941b08d46b1",
          "transactionIndex": "0x1",
          "logIndex": "0x0",
          "removed": false
        }
      ],
      "logsBloom": "0x04000000000000000000000000000000000000000000000000000000000000000000000000000000000000000001000000000000000000000000000000000000000000000000000000000000020001000000000000000000000000000000000000000000000000000000000000000000000000000000000000000000000000000000000000000000000000000000000008000010000000000000000000000000000000000000100000002100000000000000000000000008000000000000000000000000000000000000000000000000000000000000000000000000000000000000000000000000000000000000000000000000028000000000000000000000",
      "type": "0x2",
      "transactionHash": "0xc7e8ff48babe6206efed3b1ac6efd2d6d141710c5bf8fe1a6275f941b08d46b1",
      "transactionIndex": "0x1",
      "blockHash": "0x88d5aea5961a6337d6b18bb69f2dbfca7d9fa15b05aa396472826bff4ad689b1",
      "blockNumber": "0x6ef022",
      "gasUsed": "0xec09",
      "effectiveGasPrice": "0x140",
      "from": "0xa7f74ae7c467764b63574369377d1b34b193a8ed",
      "to": "0x55db4a872d38eda312123e23f1c8135ee0e745ca",
      "contractAddress": null,
      "l1BaseFeeScalar": "0x558",
      "l1BlobBaseFee": "0x1",
      "l1BlobBaseFeeScalar": "0xc5fc5",
      "l1Fee": "0x1cbd31623",
      "l1GasPrice": "0xd214a63a",
      "l1GasUsed": "0x640"
    },
    {
      "status": "0x1",
      "cumulativeGasUsed": "0x18666",
      "logs": [
        {
          "address": "0x55db4a872d38eda312123e23f1c8135ee0e745ca",
          "topics": [
            "0xfeb69018ee8b8fd50ea86348f1267d07673379f72cffdeccec63853ee8ce8b48",
            "0x0000000000000000000000000000000000000000000000000000000000000003"
          ],
          "data": "0x0000000000000000000000000000000000000000000000000000000000000000000000000000000000000000000000000000000000000000000000006824bac9",
          "blockHash": "0x551fbd64ac0011e25a74796c539219cab42da2048f9df1e13830be30fe747286",
          "blockNumber": "0x6ef025",
          "transactionHash": "0x9bf0f4ee70c3b422b0de7092b7041791a4f68128c6a7a6b8c31ae7d90e3e97d5",
          "transactionIndex": "0x1",
          "logIndex": "0x0",
          "removed": false
        }
      ],
      "logsBloom": "0x00000000000000000000000000000000000000000000000000000000000000000000000000000000000000000000000000000000020000000000000000000000000000000000000000000000020000000000000000000000000000000000000000000000000000000000008000000000000000000000000000010000000000000000000000000000000000000000000000000010000000000000000000000000000000000000100000000000000000000000000000800000000000000000400000000000000000020000000000000000000000000000000000000000000000000000000000000000000000000000000000000000000000000000000000000000",
      "type": "0x2",
      "transactionHash": "0x9bf0f4ee70c3b422b0de7092b7041791a4f68128c6a7a6b8c31ae7d90e3e97d5",
      "transactionIndex": "0x1",
      "blockHash": "0x551fbd64ac0011e25a74796c539219cab42da2048f9df1e13830be30fe747286",
      "blockNumber": "0x6ef025",
      "gasUsed": "0xdaf4",
      "effectiveGasPrice": "0x140",
      "from": "0xa7f74ae7c467764b63574369377d1b34b193a8ed",
      "to": "0x55db4a872d38eda312123e23f1c8135ee0e745ca",
      "contractAddress": null,
      "l1BaseFeeScalar": "0x558",
      "l1BlobBaseFee": "0x1",
      "l1BlobBaseFeeScalar": "0xc5fc5",
      "l1Fee": "0x1cbd31623",
      "l1GasPrice": "0xd214a63a",
      "l1GasUsed": "0x640"
    },
    {
      "status": "0x1",
      "cumulativeGasUsed": "0x1977b",
      "logs": [
        {
          "address": "0x55db4a872d38eda312123e23f1c8135ee0e745ca",
          "topics": [
            "0xf98448b987f1428e0e230e1f3c6e2ce15b5693eaf31827fbd0b1ec4b424ae7cf",
            "0x0000000000000000000000000000000000000000000000000000000000000003",
            "0x0000000000000000000000007bbc892828f01c79d6b5ffcfb637be32fe01d1be"
          ],
          "data": "0x000000000000000000000000000000000000000000000000000000000002a300000000000000000000000000000000000000000000000000000000006824bacf0000000000000000000000000000000000000000000000000000000000000001",
          "blockHash": "0xc66e4c2efc9b47e424e4ebedabdeb759e2bd4226bf080ba8f1d0cd2272defe59",
          "blockNumber": "0x6ef028",
          "transactionHash": "0x3620fdb867aa469af74f47aeda252198db6074278f5730982e39345886fd9e05",
          "transactionIndex": "0x1",
          "logIndex": "0x0",
          "removed": false
        }
      ],
      "logsBloom": "0x00000000000000000000000000000000000000000000000000000000000000000000000000000000000000000001000000000000020000000000000000000000000000000000000000000000020001000000000000000000000000000000000000000000000000000000000000000000000000000000000000000000000000000000000000000000000000000000000008000010000000000000000000000000000000000000100000002000000000000000000000800008000000000000400000000000000000000000000000000000000000000000000000000000000000000000000000000000000000000000000000000000020000000000000000000000",
      "type": "0x2",
      "transactionHash": "0x3620fdb867aa469af74f47aeda252198db6074278f5730982e39345886fd9e05",
      "transactionIndex": "0x1",
      "blockHash": "0xc66e4c2efc9b47e424e4ebedabdeb759e2bd4226bf080ba8f1d0cd2272defe59",
      "blockNumber": "0x6ef028",
      "gasUsed": "0xec09",
      "effectiveGasPrice": "0x140",
      "from": "0xa7f74ae7c467764b63574369377d1b34b193a8ed",
      "to": "0x55db4a872d38eda312123e23f1c8135ee0e745ca",
      "contractAddress": null,
      "l1BaseFeeScalar": "0x558",
      "l1BlobBaseFee": "0x1",
      "l1BlobBaseFeeScalar": "0xc5fc5",
      "l1Fee": "0x2053fe4c6",
      "l1GasPrice": "0xec5106e1",
      "l1GasUsed": "0x640"
    },
    {
      "status": "0x1",
      "cumulativeGasUsed": "0x18666",
      "logs": [
        {
          "address": "0x55db4a872d38eda312123e23f1c8135ee0e745ca",
          "topics": [
            "0xfeb69018ee8b8fd50ea86348f1267d07673379f72cffdeccec63853ee8ce8b48",
            "0x0000000000000000000000000000000000000000000000000000000000000004"
          ],
          "data": "0x0000000000000000000000000000000000000000000000000000000000000000000000000000000000000000000000000000000000000000000000006824bad5",
          "blockHash": "0x77153f8e40fa732c99639c84688d588b9337fd16dddd02ebd7c37e139d7c2b25",
          "blockNumber": "0x6ef02b",
          "transactionHash": "0xab08e5b65af26806c4b9c5ff96adfb9e9bdabd5ba66ffaced842569943a5ec8e",
          "transactionIndex": "0x1",
          "logIndex": "0x0",
          "removed": false
        }
      ],
      "logsBloom": "0x00000000000000000000000000000000000000000000000000000000000000000000000000000000000000000000000000000000000000000000000000000000000000000000000000000000020000000000000000000000000000000000000008000000000000000000008000000000000000000000000000010000000000000000000000000000000000000000000000000010000000000000000000000000000000000000100000000000000000000000000000000000002000000000000000000000000000020000000000000000000000008000000000000000000000000000000000000000000000000000000000000000000000000000000000000000",
      "type": "0x2",
      "transactionHash": "0xab08e5b65af26806c4b9c5ff96adfb9e9bdabd5ba66ffaced842569943a5ec8e",
      "transactionIndex": "0x1",
      "blockHash": "0x77153f8e40fa732c99639c84688d588b9337fd16dddd02ebd7c37e139d7c2b25",
      "blockNumber": "0x6ef02b",
      "gasUsed": "0xdaf4",
      "effectiveGasPrice": "0x140",
      "from": "0xa7f74ae7c467764b63574369377d1b34b193a8ed",
      "to": "0x55db4a872d38eda312123e23f1c8135ee0e745ca",
      "contractAddress": null,
      "l1BaseFeeScalar": "0x558",
      "l1BlobBaseFee": "0x1",
      "l1BlobBaseFeeScalar": "0xc5fc5",
      "l1Fee": "0x2053fe4c6",
      "l1GasPrice": "0xec5106e1",
      "l1GasUsed": "0x640"
    },
    {
      "status": "0x1",
      "cumulativeGasUsed": "0x19787",
      "logs": [
        {
          "address": "0x55db4a872d38eda312123e23f1c8135ee0e745ca",
          "topics": [
            "0xf98448b987f1428e0e230e1f3c6e2ce15b5693eaf31827fbd0b1ec4b424ae7cf",
            "0x0000000000000000000000000000000000000000000000000000000000000004",
            "0x0000000000000000000000007bbc892828f01c79d6b5ffcfb637be32fe01d1be"
          ],
          "data": "0x0000000000000000000000000000000000000000000000000000000000093a80000000000000000000000000000000000000000000000000000000006824badb0000000000000000000000000000000000000000000000000000000000000001",
          "blockHash": "0xead9a24272e941430d5d81f421ae45e1cb8311ee442fe24cce84eaefeb441a00",
          "blockNumber": "0x6ef02e",
          "transactionHash": "0xdc9f53f4f0afd31d88bd5db9edd387fd124fb0c7fa5e932a9c1501c3c53be7f9",
          "transactionIndex": "0x1",
          "logIndex": "0x0",
          "removed": false
        }
      ],
      "logsBloom": "0x00000000000000000000000000000000000000000000000000000000000000000000000000000000000000000001000000000000000000000000000000000000000000000000000000000000020001000000000000000000000000000000000008000000000000000000000000000000000000000000000000000000000000000000000000000000000000000000000008000010000000000000000000000000000000000000100000002000000000000000000000000008002000000000000000000000000000000000000000000000000000008000000000000000000000000000000000000000000000000000000000000000020000000000000000000000",
      "type": "0x2",
      "transactionHash": "0xdc9f53f4f0afd31d88bd5db9edd387fd124fb0c7fa5e932a9c1501c3c53be7f9",
      "transactionIndex": "0x1",
      "blockHash": "0xead9a24272e941430d5d81f421ae45e1cb8311ee442fe24cce84eaefeb441a00",
      "blockNumber": "0x6ef02e",
      "gasUsed": "0xec15",
      "effectiveGasPrice": "0x140",
      "from": "0xa7f74ae7c467764b63574369377d1b34b193a8ed",
      "to": "0x55db4a872d38eda312123e23f1c8135ee0e745ca",
      "contractAddress": null,
      "l1BaseFeeScalar": "0x558",
      "l1BlobBaseFee": "0x1",
      "l1BlobBaseFeeScalar": "0xc5fc5",
      "l1Fee": "0x1fda562e6",
      "l1GasPrice": "0xe8d7b934",
      "l1GasUsed": "0x640"
    },
    {
      "status": "0x1",
      "cumulativeGasUsed": "0x193a1",
      "logs": [
        {
          "address": "0x55db4a872d38eda312123e23f1c8135ee0e745ca",
          "topics": [
            "0x9ea6790c7dadfd01c9f8b9762b3682607af2c7e79e05a9f9fdf5580dde949151",
            "0x000000000000000000000000ce9f80a0dcd51fb3dd4f0d6bec3afdcaea10c912",
            "0x0000000000000000000000000000000000000000000000000000000000000001"
          ],
          "data": "0x0b3c44d300000000000000000000000000000000000000000000000000000000",
          "blockHash": "0x82d4356a3e34bda0eaac74728c0540036192671c08129f7401ad602f89592099",
          "blockNumber": "0x6ef031",
          "transactionHash": "0x8d0ce2afeaf488ee26b0373c597968e7a05b3909fe3f14cd521cb3dcd54b3b6c",
          "transactionIndex": "0x1",
          "logIndex": "0x0",
          "removed": false
        }
      ],
      "logsBloom": "0x00000004000080000000000000000000100000000000000000000000000000000000000000000000000000000000000000000000000000000000000000040000000000000000000000000000020000000000000000040000000000000000000000000000000000000000000000000000000000000000000000000000000000000000000000000000000000000000000000000010000000000000000000000000000000000000100000000000000004000000000000000000000000000000000000000000004000000000000000200000000000000000000000000000000040000000000000000000000000000000000000000000000000000000000000000000",
      "type": "0x2",
      "transactionHash": "0x8d0ce2afeaf488ee26b0373c597968e7a05b3909fe3f14cd521cb3dcd54b3b6c",
      "transactionIndex": "0x1",
      "blockHash": "0x82d4356a3e34bda0eaac74728c0540036192671c08129f7401ad602f89592099",
      "blockNumber": "0x6ef031",
      "gasUsed": "0xe82f",
      "effectiveGasPrice": "0x140",
      "from": "0xa7f74ae7c467764b63574369377d1b34b193a8ed",
      "to": "0x55db4a872d38eda312123e23f1c8135ee0e745ca",
      "contractAddress": null,
      "l1BaseFeeScalar": "0x558",
      "l1BlobBaseFee": "0x1",
      "l1BlobBaseFeeScalar": "0xc5fc5",
      "l1Fee": "0x21549140e",
      "l1GasPrice": "0xe8d7b934",
      "l1GasUsed": "0x68a"
    },
    {
      "status": "0x1",
      "cumulativeGasUsed": "0x2b6c0",
      "logs": [
        {
          "address": "0x55db4a872d38eda312123e23f1c8135ee0e745ca",
          "topics": [
            "0x9ea6790c7dadfd01c9f8b9762b3682607af2c7e79e05a9f9fdf5580dde949151",
            "0x000000000000000000000000ce9f80a0dcd51fb3dd4f0d6bec3afdcaea10c912",
            "0x0000000000000000000000000000000000000000000000000000000000000002"
          ],
          "data": "0x230fe6e500000000000000000000000000000000000000000000000000000000",
          "blockHash": "0x57c90df821688f69d743ef30bdf665a3ed0842fc80f6ed7414f922d6f43578bb",
          "blockNumber": "0x6ef034",
          "transactionHash": "0x5414285005ce73746567d531a5f32d133034be436887009a76f7c2b6d0ea59d2",
          "transactionIndex": "0x2",
          "logIndex": "0x1",
          "removed": false
        }
      ],
      "logsBloom": "0x04000004000080000000000000000000100000000000000000000000000000000000000000000000000000000000000000000000000000000000000000000000000000000000000000000000020000000000000000000000000000000000000000000000000000000000000000000000000000000000000000000000000000000000000000000000000000000000000000000010000000000000000000000000000000000000100000000100000004000000000000000000000000000000000000000000004000000000000000200000000000000000000000000000000000000000000000000000000000000000000000000000008000000000000000000000",
      "type": "0x2",
      "transactionHash": "0x5414285005ce73746567d531a5f32d133034be436887009a76f7c2b6d0ea59d2",
      "transactionIndex": "0x2",
      "blockHash": "0x57c90df821688f69d743ef30bdf665a3ed0842fc80f6ed7414f922d6f43578bb",
      "blockNumber": "0x6ef034",
      "gasUsed": "0xe82f",
      "effectiveGasPrice": "0x140",
      "from": "0xa7f74ae7c467764b63574369377d1b34b193a8ed",
      "to": "0x55db4a872d38eda312123e23f1c8135ee0e745ca",
      "contractAddress": null,
      "l1BaseFeeScalar": "0x558",
      "l1BlobBaseFee": "0x1",
      "l1BlobBaseFeeScalar": "0xc5fc5",
      "l1Fee": "0x1fae90bdf",
      "l1GasPrice": "0xdf1c4159",
      "l1GasUsed": "0x67c"
    },
    {
      "status": "0x1",
      "cumulativeGasUsed": "0x2b485",
      "logs": [
        {
          "address": "0x55db4a872d38eda312123e23f1c8135ee0e745ca",
          "topics": [
            "0x9ea6790c7dadfd01c9f8b9762b3682607af2c7e79e05a9f9fdf5580dde949151",
            "0x000000000000000000000000ce9f80a0dcd51fb3dd4f0d6bec3afdcaea10c912",
            "0x0000000000000000000000000000000000000000000000000000000000000003"
          ],
          "data": "0x5978103400000000000000000000000000000000000000000000000000000000",
          "blockHash": "0x4d9920ef6f0355678021d4ecd592fc51ef577e734afec3eca63fbf32a5ec53a1",
          "blockNumber": "0x6ef037",
          "transactionHash": "0x7de709eff667943f4c70f286b6a9242a22d534e6a8666e8ec23203eef1c2ed2f",
          "transactionIndex": "0x1",
          "logIndex": "0x0",
          "removed": false
        },
        {
          "address": "0x55db4a872d38eda312123e23f1c8135ee0e745ca",
          "topics": [
            "0x9ea6790c7dadfd01c9f8b9762b3682607af2c7e79e05a9f9fdf5580dde949151",
            "0x000000000000000000000000ce9f80a0dcd51fb3dd4f0d6bec3afdcaea10c912",
            "0x0000000000000000000000000000000000000000000000000000000000000003"
          ],
          "data": "0x7d10dbff00000000000000000000000000000000000000000000000000000000",
          "blockHash": "0x4d9920ef6f0355678021d4ecd592fc51ef577e734afec3eca63fbf32a5ec53a1",
          "blockNumber": "0x6ef037",
          "transactionHash": "0x7de709eff667943f4c70f286b6a9242a22d534e6a8666e8ec23203eef1c2ed2f",
          "transactionIndex": "0x1",
          "logIndex": "0x1",
          "removed": false
        },
        {
          "address": "0x55db4a872d38eda312123e23f1c8135ee0e745ca",
          "topics": [
            "0x9ea6790c7dadfd01c9f8b9762b3682607af2c7e79e05a9f9fdf5580dde949151",
            "0x000000000000000000000000ce9f80a0dcd51fb3dd4f0d6bec3afdcaea10c912",
            "0x0000000000000000000000000000000000000000000000000000000000000003"
          ],
          "data": "0x3a33102200000000000000000000000000000000000000000000000000000000",
          "blockHash": "0x4d9920ef6f0355678021d4ecd592fc51ef577e734afec3eca63fbf32a5ec53a1",
          "blockNumber": "0x6ef037",
          "transactionHash": "0x7de709eff667943f4c70f286b6a9242a22d534e6a8666e8ec23203eef1c2ed2f",
          "transactionIndex": "0x1",
          "logIndex": "0x2",
          "removed": false
        },
        {
          "address": "0x55db4a872d38eda312123e23f1c8135ee0e745ca",
          "topics": [
            "0x9ea6790c7dadfd01c9f8b9762b3682607af2c7e79e05a9f9fdf5580dde949151",
            "0x000000000000000000000000ce9f80a0dcd51fb3dd4f0d6bec3afdcaea10c912",
            "0x0000000000000000000000000000000000000000000000000000000000000003"
          ],
          "data": "0xcc9ece6400000000000000000000000000000000000000000000000000000000",
          "blockHash": "0x4d9920ef6f0355678021d4ecd592fc51ef577e734afec3eca63fbf32a5ec53a1",
          "blockNumber": "0x6ef037",
          "transactionHash": "0x7de709eff667943f4c70f286b6a9242a22d534e6a8666e8ec23203eef1c2ed2f",
          "transactionIndex": "0x1",
          "logIndex": "0x3",
          "removed": false
        }
      ],
      "logsBloom": "0x00000004000080000000000000000000100000000000000000000000000000000000000000000000000000000000000000000000020000000000000000000000000000000000000000000000020000000000000000000000000000000000000000000000000000000000000000000000000000000000000000000000000000000000000000000000000000000000000000000010000000000000000000000000000000000000100000000000000004000000000000800000000000000000400000000000004000000000000000200000000000000000000000000000000000000000000000000000000000000000000000000000000000000000000000000000",
      "type": "0x2",
      "transactionHash": "0x7de709eff667943f4c70f286b6a9242a22d534e6a8666e8ec23203eef1c2ed2f",
      "transactionIndex": "0x1",
      "blockHash": "0x4d9920ef6f0355678021d4ecd592fc51ef577e734afec3eca63fbf32a5ec53a1",
      "blockNumber": "0x6ef037",
      "gasUsed": "0x20913",
      "effectiveGasPrice": "0x140",
      "from": "0xa7f74ae7c467764b63574369377d1b34b193a8ed",
      "to": "0x55db4a872d38eda312123e23f1c8135ee0e745ca",
      "contractAddress": null,
      "l1BaseFeeScalar": "0x558",
      "l1BlobBaseFee": "0x1",
      "l1BlobBaseFeeScalar": "0xc5fc5",
      "l1Fee": "0x27da15873",
      "l1GasPrice": "0xdf1c4159",
      "l1GasUsed": "0x829"
    },
    {
      "status": "0x1",
      "cumulativeGasUsed": "0x2542d",
      "logs": [
        {
          "address": "0x55db4a872d38eda312123e23f1c8135ee0e745ca",
          "topics": [
            "0x9ea6790c7dadfd01c9f8b9762b3682607af2c7e79e05a9f9fdf5580dde949151",
            "0x000000000000000000000000ce9f80a0dcd51fb3dd4f0d6bec3afdcaea10c912",
            "0x0000000000000000000000000000000000000000000000000000000000000004"
          ],
          "data": "0xaa7fc7e500000000000000000000000000000000000000000000000000000000",
          "blockHash": "0x3230210fa66cf4b498f095293d5b191a6f72845624762204dd7f706e04a485bf",
          "blockNumber": "0x6ef03a",
          "transactionHash": "0x8963ad3c334fdfa4ddb257d85dc843ba631d9b242c615dac2b00b8d2fd508eea",
          "transactionIndex": "0x1",
          "logIndex": "0x0",
          "removed": false
        },
        {
          "address": "0x55db4a872d38eda312123e23f1c8135ee0e745ca",
          "topics": [
            "0x9ea6790c7dadfd01c9f8b9762b3682607af2c7e79e05a9f9fdf5580dde949151",
            "0x000000000000000000000000ce9f80a0dcd51fb3dd4f0d6bec3afdcaea10c912",
            "0x0000000000000000000000000000000000000000000000000000000000000004"
          ],
          "data": "0x7f06d28d00000000000000000000000000000000000000000000000000000000",
          "blockHash": "0x3230210fa66cf4b498f095293d5b191a6f72845624762204dd7f706e04a485bf",
          "blockNumber": "0x6ef03a",
          "transactionHash": "0x8963ad3c334fdfa4ddb257d85dc843ba631d9b242c615dac2b00b8d2fd508eea",
          "transactionIndex": "0x1",
          "logIndex": "0x1",
          "removed": false
        },
        {
          "address": "0x55db4a872d38eda312123e23f1c8135ee0e745ca",
          "topics": [
            "0x9ea6790c7dadfd01c9f8b9762b3682607af2c7e79e05a9f9fdf5580dde949151",
            "0x000000000000000000000000ce9f80a0dcd51fb3dd4f0d6bec3afdcaea10c912",
            "0x0000000000000000000000000000000000000000000000000000000000000004"
          ],
          "data": "0x0002ad2f00000000000000000000000000000000000000000000000000000000",
          "blockHash": "0x3230210fa66cf4b498f095293d5b191a6f72845624762204dd7f706e04a485bf",
          "blockNumber": "0x6ef03a",
          "transactionHash": "0x8963ad3c334fdfa4ddb257d85dc843ba631d9b242c615dac2b00b8d2fd508eea",
          "transactionIndex": "0x1",
          "logIndex": "0x2",
          "removed": false
        }
      ],
      "logsBloom": "0x00000004000080000000000000000000100000000000000000000000000000000000000000000000000000000000000000000000000000000000000000000000000000000000000000000000020000000000000000000000000000000000000008000000000000000000000000000000000000000000000000000000000000000000000000000000000000000000000000000010000000000000000000000000000000000000100000000000000004000000000000000000002000000000000000000000004000000000000000200000000000008000000000000000000000000000000000000000000000000000000000000000000000000000000000000000",
      "type": "0x2",
      "transactionHash": "0x8963ad3c334fdfa4ddb257d85dc843ba631d9b242c615dac2b00b8d2fd508eea",
      "transactionIndex": "0x1",
      "blockHash": "0x3230210fa66cf4b498f095293d5b191a6f72845624762204dd7f706e04a485bf",
      "blockNumber": "0x6ef03a",
      "gasUsed": "0x1a8bb",
      "effectiveGasPrice": "0x140",
      "from": "0xa7f74ae7c467764b63574369377d1b34b193a8ed",
      "to": "0x55db4a872d38eda312123e23f1c8135ee0e745ca",
      "contractAddress": null,
      "l1BaseFeeScalar": "0x558",
      "l1BlobBaseFee": "0x1",
      "l1BlobBaseFeeScalar": "0xc5fc5",
      "l1Fee": "0x22378de51",
      "l1GasPrice": "0xcf84622f",
      "l1GasUsed": "0x788"
    },
    {
      "status": "0x1",
      "cumulativeGasUsed": "0x1f3ed",
      "logs": [
        {
          "address": "0x55db4a872d38eda312123e23f1c8135ee0e745ca",
          "topics": [
            "0x9ea6790c7dadfd01c9f8b9762b3682607af2c7e79e05a9f9fdf5580dde949151",
            "0x0000000000000000000000007de9dc432cc064a9f69b9e183163fa7257ffd451",
            "0x0000000000000000000000000000000000000000000000000000000000000002"
          ],
          "data": "0xf2f6596000000000000000000000000000000000000000000000000000000000",
          "blockHash": "0x6f74370197767f4c178451eefce4f45656e29973c9fd27789e987dac4688849c",
          "blockNumber": "0x6ef03d",
          "transactionHash": "0x10c7e30aa9bdeee44d7ea4b4c2fa8c32696ccf71671061741eca832e7ff25833",
          "transactionIndex": "0x1",
          "logIndex": "0x0",
          "removed": false
        },
        {
          "address": "0x55db4a872d38eda312123e23f1c8135ee0e745ca",
          "topics": [
            "0x9ea6790c7dadfd01c9f8b9762b3682607af2c7e79e05a9f9fdf5580dde949151",
            "0x0000000000000000000000007de9dc432cc064a9f69b9e183163fa7257ffd451",
            "0x0000000000000000000000000000000000000000000000000000000000000002"
          ],
          "data": "0xf0aef31c00000000000000000000000000000000000000000000000000000000",
          "blockHash": "0x6f74370197767f4c178451eefce4f45656e29973c9fd27789e987dac4688849c",
          "blockNumber": "0x6ef03d",
          "transactionHash": "0x10c7e30aa9bdeee44d7ea4b4c2fa8c32696ccf71671061741eca832e7ff25833",
          "transactionIndex": "0x1",
          "logIndex": "0x1",
          "removed": false
        }
      ],
      "logsBloom": "0x04000004000080000000000000000000000000000000000000000000000000000000000000000000000000000000000000000000000000000000000000000000000000000000000000000000020000000000000000000000000000000000000000000000000000000000000000000000000000000000000000000000000000000000000000800000000000000000000000000010000000000000000000000000000000000000100000000100000000000000000000000000000000000400000000000000000000000000000000200000000000020000000000000000000000000000000000000000000000000000000000000000008000000000000000000000",
      "type": "0x2",
      "transactionHash": "0x10c7e30aa9bdeee44d7ea4b4c2fa8c32696ccf71671061741eca832e7ff25833",
      "transactionIndex": "0x1",
      "blockHash": "0x6f74370197767f4c178451eefce4f45656e29973c9fd27789e987dac4688849c",
      "blockNumber": "0x6ef03d",
      "gasUsed": "0x1487b",
      "effectiveGasPrice": "0x140",
      "from": "0xa7f74ae7c467764b63574369377d1b34b193a8ed",
      "to": "0x55db4a872d38eda312123e23f1c8135ee0e745ca",
      "contractAddress": null,
      "l1BaseFeeScalar": "0x558",
      "l1BlobBaseFee": "0x1",
      "l1BlobBaseFeeScalar": "0xc5fc5",
      "l1Fee": "0x1f5e0d13e",
      "l1GasPrice": "0xcf84622f",
      "l1GasUsed": "0x6e7"
    },
    {
      "status": "0x1",
      "cumulativeGasUsed": "0x19389",
      "logs": [
        {
          "address": "0x55db4a872d38eda312123e23f1c8135ee0e745ca",
          "topics": [
            "0x9ea6790c7dadfd01c9f8b9762b3682607af2c7e79e05a9f9fdf5580dde949151",
            "0x0000000000000000000000000000baa0b1678229863c0a941c1056b83a1955f5",
            "0x0000000000000000000000000000000000000000000000000000000000000002"
          ],
          "data": "0x4f1ef28600000000000000000000000000000000000000000000000000000000",
          "blockHash": "0x90d056fd8433f6ab920909664ea162ba76621cdbd3443f27a9b1159ea279a3cb",
          "blockNumber": "0x6ef040",
          "transactionHash": "0xf4b466cdfa204baa7f5d817459c3a0320640d0a880387c13cff32187195fe299",
          "transactionIndex": "0x1",
          "logIndex": "0x0",
          "removed": false
        }
      ],
      "logsBloom": "0x04000004000080000000000000000000000000000000000000000000000000000000000000000000000000000000000000000000000000000004000000000000000000000000000000000000020000000000000000000000000000000000000000000000000000000000000000000000000000000000000000000000000000000000000000000000000000000000000000000010000000000000000000000000000000000000100000000100000000000000008000000000000000000000000000000800000000000000000000200000000000000000000000000000000000000000000000000000000000000000000000000000008000000000000000000000",
      "type": "0x2",
      "transactionHash": "0xf4b466cdfa204baa7f5d817459c3a0320640d0a880387c13cff32187195fe299",
      "transactionIndex": "0x1",
      "blockHash": "0x90d056fd8433f6ab920909664ea162ba76621cdbd3443f27a9b1159ea279a3cb",
      "blockNumber": "0x6ef040",
      "gasUsed": "0xe817",
      "effectiveGasPrice": "0x140",
      "from": "0xa7f74ae7c467764b63574369377d1b34b193a8ed",
      "to": "0x55db4a872d38eda312123e23f1c8135ee0e745ca",
      "contractAddress": null,
      "l1BaseFeeScalar": "0x558",
      "l1BlobBaseFee": "0x1",
      "l1BlobBaseFeeScalar": "0xc5fc5",
      "l1Fee": "0x1d6874503",
      "l1GasPrice": "0xcf18e918",
      "l1GasUsed": "0x67c"
    },
    {
      "status": "0x1",
      "cumulativeGasUsed": "0x193a1",
      "logs": [
        {
          "address": "0x55db4a872d38eda312123e23f1c8135ee0e745ca",
          "topics": [
            "0x9ea6790c7dadfd01c9f8b9762b3682607af2c7e79e05a9f9fdf5580dde949151",
            "0x000000000000000000000000ce9f80a0dcd51fb3dd4f0d6bec3afdcaea10c912",
            "0x0000000000000000000000000000000000000000000000000000000000000002"
          ],
          "data": "0x4f1ef28600000000000000000000000000000000000000000000000000000000",
          "blockHash": "0xdaef0949b8d198a5fedfc2afc5020e770c9931fb1d19adf439803a753a48f039",
          "blockNumber": "0x6ef043",
          "transactionHash": "0x27cfe0d47b07d18fe6f1c017502afe11529bda1b62b5f3b69b80a57d1705ad7c",
          "transactionIndex": "0x1",
          "logIndex": "0x0",
          "removed": false
        }
      ],
      "logsBloom": "0x04000004000080000000000000000000100000000000000000000000000000000000000000000000000000000000000000000000000000000000000000000000000000000000000000000000020000000000000000000000000000000000000000000000000000000000000000000000000000000000000000000000000000000000000000000000000000000000000000000010000000000000000000000000000000000000100000000100000004000000000000000000000000000000000000000000004000000000000000200000000000000000000000000000000000000000000000000000000000000000000000000000008000000000000000000000",
      "type": "0x2",
      "transactionHash": "0x27cfe0d47b07d18fe6f1c017502afe11529bda1b62b5f3b69b80a57d1705ad7c",
      "transactionIndex": "0x1",
      "blockHash": "0xdaef0949b8d198a5fedfc2afc5020e770c9931fb1d19adf439803a753a48f039",
      "blockNumber": "0x6ef043",
      "gasUsed": "0xe82f",
      "effectiveGasPrice": "0x140",
      "from": "0xa7f74ae7c467764b63574369377d1b34b193a8ed",
      "to": "0x55db4a872d38eda312123e23f1c8135ee0e745ca",
      "contractAddress": null,
      "l1BaseFeeScalar": "0x558",
      "l1BlobBaseFee": "0x1",
      "l1BlobBaseFeeScalar": "0xc5fc5",
      "l1Fee": "0x1da51f906",
      "l1GasPrice": "0xcf18e918",
      "l1GasUsed": "0x68a"
    },
    {
      "status": "0x1",
      "cumulativeGasUsed": "0x1fb5e0",
      "logs": [
        {
          "address": "0x55db4a872d38eda312123e23f1c8135ee0e745ca",
          "topics": [
            "0x9ea6790c7dadfd01c9f8b9762b3682607af2c7e79e05a9f9fdf5580dde949151",
            "0x000000000000000000000000d25df935bbbb87542b2f36dc2e3d6c315d647509",
            "0x0000000000000000000000000000000000000000000000000000000000000002"
          ],
          "data": "0x4f1ef28600000000000000000000000000000000000000000000000000000000",
          "blockHash": "0x014578b891735cfff69d3210f314cba67c2a7389fbaf79099b4c540d14237df6",
          "blockNumber": "0x6ef046",
          "transactionHash": "0x3c29e53721f61cf7b80682cb3f0dad04349b45c8cdb98bc3b4815758cb29127e",
          "transactionIndex": "0x3",
          "logIndex": "0x5",
          "removed": false
        }
      ],
      "logsBloom": "0x04000004000080000000000000000000000000000000000000000000000000000000000000000000000000000000000000000000000000000000000000000000000000000000000000000000020000000000000000000000000000000000000000000004000000000000010000000000000000000000000000000000000000000000000000000000000000000000000000000010000000000000000000000000000000000000100000000100000000000000008000000000000000000000000000000000000000000000000000200000000000000000000000000000000000000000000000000000000000000000000000000000008000000000000000000000",
      "type": "0x2",
      "transactionHash": "0x3c29e53721f61cf7b80682cb3f0dad04349b45c8cdb98bc3b4815758cb29127e",
      "transactionIndex": "0x3",
      "blockHash": "0x014578b891735cfff69d3210f314cba67c2a7389fbaf79099b4c540d14237df6",
      "blockNumber": "0x6ef046",
      "gasUsed": "0xe82f",
      "effectiveGasPrice": "0x140",
      "from": "0xa7f74ae7c467764b63574369377d1b34b193a8ed",
      "to": "0x55db4a872d38eda312123e23f1c8135ee0e745ca",
      "contractAddress": null,
      "l1BaseFeeScalar": "0x558",
      "l1BlobBaseFee": "0x1",
      "l1BlobBaseFeeScalar": "0xc5fc5",
      "l1Fee": "0x1ac1b9815",
      "l1GasPrice": "0xc39715fe",
      "l1GasUsed": "0x640"
    },
    {
      "status": "0x1",
      "cumulativeGasUsed": "0x1bfac3",
      "logs": [
        {
          "address": "0x55db4a872d38eda312123e23f1c8135ee0e745ca",
          "topics": [
            "0x9ea6790c7dadfd01c9f8b9762b3682607af2c7e79e05a9f9fdf5580dde949151",
            "0x0000000000000000000000000c2c4017c1bf6e95aaf24b0f033cb6243a43fa2f",
            "0x0000000000000000000000000000000000000000000000000000000000000002"
          ],
          "data": "0x4f1ef28600000000000000000000000000000000000000000000000000000000",
          "blockHash": "0xe3875a8c3dcb590e13d4d3bd4929231d14286c56d38c103357225a76636f9c0b",
          "blockNumber": "0x6ef049",
          "transactionHash": "0xc86b8773e63ea734ee6aea6c5a72c6c73f413153e1d243cca807b95b46eb9c55",
          "transactionIndex": "0x3",
          "logIndex": "0x1",
          "removed": false
        }
      ],
      "logsBloom": "0x04000004000080000000000000000000000000000001000000000000000000000000000000000000000000000000000000000000000000000000000000000000000000000000000000000000020000000000000000000000000000000000000000000000000000000000000000000000000000000000000000000000000000000000000000000000000000000000000000000010000000000000000000000000000000000001100000000100000000000000000000000000000000000000000000000000000000000000000000200000100000000000000000000000000000000000000000000000000000000000000000000000008000000000000000000000",
      "type": "0x2",
      "transactionHash": "0xc86b8773e63ea734ee6aea6c5a72c6c73f413153e1d243cca807b95b46eb9c55",
      "transactionIndex": "0x3",
      "blockHash": "0xe3875a8c3dcb590e13d4d3bd4929231d14286c56d38c103357225a76636f9c0b",
      "blockNumber": "0x6ef049",
      "gasUsed": "0xe82f",
      "effectiveGasPrice": "0x140",
      "from": "0xa7f74ae7c467764b63574369377d1b34b193a8ed",
      "to": "0x55db4a872d38eda312123e23f1c8135ee0e745ca",
      "contractAddress": null,
      "l1BaseFeeScalar": "0x558",
      "l1BlobBaseFee": "0x1",
      "l1BlobBaseFeeScalar": "0xc5fc5",
      "l1Fee": "0x1bff7137b",
      "l1GasPrice": "0xc39715fe",
      "l1GasUsed": "0x68a"
    },
    {
      "status": "0x1",
      "cumulativeGasUsed": "0x13141",
      "logs": [
        {
          "address": "0x55db4a872d38eda312123e23f1c8135ee0e745ca",
          "topics": [
            "0xf229baa593af28c41b1d16b748cd7688f0c83aaf92d4be41c44005defe84c166",
            "0x0000000000000000000000000000000000000000000000000000000000000000",
            "0x000000000000000000000000a7f74ae7c467764b63574369377d1b34b193a8ed"
          ],
          "data": "0x",
          "blockHash": "0x8108995f2c22a1a9cd5e2e38b469865c8d85446ff6f8e2043ef64aef48737345",
          "blockNumber": "0x6ef04c",
          "transactionHash": "0x88b1f2554e090db3fdbff4d2ec2f51da9c0f41df639e9d7501c88303ca18ac17",
          "transactionIndex": "0x1",
          "logIndex": "0x0",
          "removed": false
        }
      ],
      "logsBloom": "0x00000000000000000000000000000000000000000000000000000000000000000000002000000000000000000000000000000000000000000400000000000000000000000000000000000000020000000000000000000000000000000000000000000000020000000000000004000800000000000000000000000000000000000000000000000000000000000000000000000010000000000000000000000000000000000000100000000000000000000000000000000000000000000000000000000000000000000000000000000002000000000000000000000000000020000000002000000000000000000000000000000000000000000000000000000400",
      "type": "0x2",
      "transactionHash": "0x88b1f2554e090db3fdbff4d2ec2f51da9c0f41df639e9d7501c88303ca18ac17",
      "transactionIndex": "0x1",
      "blockHash": "0x8108995f2c22a1a9cd5e2e38b469865c8d85446ff6f8e2043ef64aef48737345",
      "blockNumber": "0x6ef04c",
      "gasUsed": "0x85cf",
      "effectiveGasPrice": "0x140",
      "from": "0xa7f74ae7c467764b63574369377d1b34b193a8ed",
      "to": "0x55db4a872d38eda312123e23f1c8135ee0e745ca",
      "contractAddress": null,
      "l1BaseFeeScalar": "0x558",
      "l1BlobBaseFee": "0x1",
      "l1BlobBaseFeeScalar": "0xc5fc5",
      "l1Fee": "0x1e19eeca6",
      "l1GasPrice": "0xdc09eada",
      "l1GasUsed": "0x640"
    }
  ],
  "libraries": [],
  "pending": [],
  "returns": {},
  "timestamp": 1747237656,
  "chain": 1923,
  "commit": "8a6fdb04"
}