{
  "transactions": [
    {
      "hash": "0x7cc650fa73f4032f3961bfc8a37a6f2fc61eaa92c13bc93ef07b48418cd3ae38",
      "transactionType": "CALL",
      "contractName": null,
      "contractAddress": "0x0000baa0b1678229863c0a941c1056b83a1955f5",
      "function": "approve(address,uint256)",
      "arguments": [
        "0x991d5546C4B442B4c5fdc4c8B8b8d131DEB24702",
        "1000000000000000000"
      ],
      "transaction": {
        "from": "0xa7f74ae7c467764b63574369377d1b34b193a8ed",
        "to": "0x0000baa0b1678229863c0a941c1056b83a1955f5",
        "gas": "0xa98c",
        "value": "0x0",
        "input": "0x095ea7b3000000000000000000000000991d5546c4b442b4c5fdc4c8b8b8d131deb247020000000000000000000000000000000000000000000000000de0b6b3a7640000",
        "nonce": "0xa2",
        "chainId": "0x783"
      },
      "additionalContracts": [],
      "isFixedGasLimit": false
    },
    {
      "hash": "0x442c9c188d5a16e0802535711754b1d5939d9d03a9cf1d74be054fef822225b1",
      "transactionType": "CALL",
      "contractName": null,
      "contractAddress": "0x5d3a1ff2b6bab83b63cd9ad0787074081a52ef34",
      "function": "approve(address,uint256)",
      "arguments": [
        "0x991d5546C4B442B4c5fdc4c8B8b8d131DEB24702",
        "1000000000000000000"
      ],
      "transaction": {
        "from": "0xa7f74ae7c467764b63574369377d1b34b193a8ed",
        "to": "0x5d3a1ff2b6bab83b63cd9ad0787074081a52ef34",
        "gas": "0x8f09",
        "value": "0x0",
        "input": "0x095ea7b3000000000000000000000000991d5546c4b442b4c5fdc4c8b8b8d131deb247020000000000000000000000000000000000000000000000000de0b6b3a7640000",
        "nonce": "0xa3",
        "chainId": "0x783"
      },
      "additionalContracts": [],
      "isFixedGasLimit": false
    },
    {
      "hash": "0xae60e55bbecb4391978c3427a3f925560813b462e9e97e07e63f89003f97cc98",
      "transactionType": "CALL",
      "contractName": null,
      "contractAddress": "0x991d5546c4b442b4c5fdc4c8b8b8d131deb24702",
      "function": "mint((address,address,int24,int24,int24,uint256,uint256,uint256,uint256,address,uint256,uint160))",
      "arguments": [
        "(0x0000bAa0b1678229863c0A941C1056b83a1955F5, 0x5d3a1Ff2b6BAb83b63cd9AD0787074081a52ef34, 50, -282300, -270300, 1000000000000000000, 1000000000000000000, 0, 0, 0xa7f74ae7C467764b63574369377D1b34b193a8Ed, 1747136715, 0)"
      ],
      "transaction": {
        "from": "0xa7f74ae7c467764b63574369377d1b34b193a8ed",
        "to": "0x991d5546c4b442b4c5fdc4c8b8b8d131deb24702",
        "gas": "0xe44de",
        "value": "0x0",
        "input": "0xb5007d1f0000000000000000000000000000baa0b1678229863c0a941c1056b83a1955f50000000000000000000000005d3a1ff2b6bab83b63cd9ad0787074081a52ef340000000000000000000000000000000000000000000000000000000000000032fffffffffffffffffffffffffffffffffffffffffffffffffffffffffffbb144fffffffffffffffffffffffffffffffffffffffffffffffffffffffffffbe0240000000000000000000000000000000000000000000000000de0b6b3a76400000000000000000000000000000000000000000000000000000de0b6b3a764000000000000000000000000000000000000000000000000000000000000000000000000000000000000000000000000000000000000000000000000000000000000000000000000000000000000a7f74ae7c467764b63574369377d1b34b193a8ed00000000000000000000000000000000000000000000000000000000682330cb0000000000000000000000000000000000000000000000000000000000000000",
        "nonce": "0xa4",
        "chainId": "0x783"
      },
      "additionalContracts": [],
      "isFixedGasLimit": false
    },
    {
      "hash": "0x3085f2f18a8a3ea204e21f9ab8e350235506b411bd21456d782ac3e1ce1008ee",
      "transactionType": "CALL",
      "contractName": null,
      "contractAddress": "0x030e6445a915e92b9bfcd850e76b6547249e1576",
      "function": "fetchPrice()",
      "arguments": [],
      "transaction": {
        "from": "0xa7f74ae7c467764b63574369377d1b34b193a8ed",
        "to": "0x030e6445a915e92b9bfcd850e76b6547249e1576",
        "gas": "0x14492",
        "value": "0x0",
        "input": "0x0fdb11cf",
        "nonce": "0xa5",
        "chainId": "0x783"
      },
      "additionalContracts": [],
      "isFixedGasLimit": false
    },
    {
      "hash": "0x396051efd19a60cfe50694c8e970765826469f06e2efd74b48236f5dda193484",
      "transactionType": "CALL",
      "contractName": null,
      "contractAddress": "0x0000baa0b1678229863c0a941c1056b83a1955f5",
      "function": "approve(address,uint256)",
      "arguments": [
        "0x991d5546C4B442B4c5fdc4c8B8b8d131DEB24702",
        "2511250000000000000"
      ],
      "transaction": {
        "from": "0xa7f74ae7c467764b63574369377d1b34b193a8ed",
        "to": "0x0000baa0b1678229863c0a941c1056b83a1955f5",
        "gas": "0xb8b7",
        "value": "0x0",
        "input": "0x095ea7b3000000000000000000000000991d5546c4b442b4c5fdc4c8b8b8d131deb2470200000000000000000000000000000000000000000000000022d9c091e0332000",
        "nonce": "0xa6",
        "chainId": "0x783"
      },
      "additionalContracts": [],
      "isFixedGasLimit": false
    },
    {
      "hash": "0x4579e9ef8bff88ec43debeade8150e69ec7e7da77d293fcfcab6e8cac9695196",
      "transactionType": "CALL",
      "contractName": null,
      "contractAddress": "0x4200000000000000000000000000000000000006",
      "function": "approve(address,uint256)",
      "arguments": [
        "0x991d5546C4B442B4c5fdc4c8B8b8d131DEB24702",
        "1000000000000000"
      ],
      "transaction": {
        "from": "0xa7f74ae7c467764b63574369377d1b34b193a8ed",
        "to": "0x4200000000000000000000000000000000000006",
        "gas": "0x107aa",
        "value": "0x0",
        "input": "0x095ea7b3000000000000000000000000991d5546c4b442b4c5fdc4c8b8b8d131deb2470200000000000000000000000000000000000000000000000000038d7ea4c68000",
        "nonce": "0xa7",
        "chainId": "0x783"
      },
      "additionalContracts": [],
      "isFixedGasLimit": false
    },
    {
      "hash": "0xce1a1b69cfcf565f41b0ae6319dc7d2289f07da06b165bb873bc83b0232ccc7f",
      "transactionType": "CALL",
      "contractName": null,
      "contractAddress": "0x04625b046c69577efc40e6c0bb83cdbafab5a55f",
      "function": "createPool(address,address,int24,uint160)",
      "arguments": [
        "0x0000bAa0b1678229863c0A941C1056b83a1955F5",
        "0x4200000000000000000000000000000000000006",
        "200",
        "1581009970803366755225135466"
      ],
      "transaction": {
        "from": "0xa7f74ae7c467764b63574369377d1b34b193a8ed",
        "to": "0x04625b046c69577efc40e6c0bb83cdbafab5a55f",
        "gas": "0x7ecf4",
        "value": "0x0",
        "input": "0x232aa5ac0000000000000000000000000000baa0b1678229863c0a941c1056b83a1955f5000000000000000000000000420000000000000000000000000000000000000600000000000000000000000000000000000000000000000000000000000000c80000000000000000000000000000000000000000051bc7e240d91a071715696a",
        "nonce": "0xa8",
        "chainId": "0x783"
      },
      "additionalContracts": [
        {
          "transactionType": "CREATE2",
          "address": "0xb05332e52a7ec8546b0787932b4c4e83b4730474",
          "initCode": "0x3d602d80600a3d3981f3363d3d373d3d3d363d73321f7dfb9b2ea9131b8c17691cf6e01e5c149ca85af43d82803e903d91602b57fd5bf3"
        }
      ],
      "isFixedGasLimit": false
    },
    {
      "hash": "0x984dc08d39f44687bba567bc5f9197526a26ba4973931b45599018e149b6ebd3",
      "transactionType": "CALL",
      "contractName": null,
      "contractAddress": "0x991d5546c4b442b4c5fdc4c8b8b8d131deb24702",
      "function": "mint((address,address,int24,int24,int24,uint256,uint256,uint256,uint256,address,uint256,uint160))",
      "arguments": [
        "(0x0000bAa0b1678229863c0A941C1056b83a1955F5, 0x4200000000000000000000000000000000000006, 200, -84200, -72200, 2511250000000000000, 1000000000000000, 0, 0, 0xa7f74ae7C467764b63574369377D1b34b193a8Ed, 1747136715, 0)"
      ],
      "transaction": {
        "from": "0xa7f74ae7c467764b63574369377d1b34b193a8ed",
        "to": "0x991d5546c4b442b4c5fdc4c8b8b8d131deb24702",
        "gas": "0xe20bb",
        "value": "0x0",
        "input": "0xb5007d1f0000000000000000000000000000baa0b1678229863c0a941c1056b83a1955f5000000000000000000000000420000000000000000000000000000000000000600000000000000000000000000000000000000000000000000000000000000c8fffffffffffffffffffffffffffffffffffffffffffffffffffffffffffeb718fffffffffffffffffffffffffffffffffffffffffffffffffffffffffffee5f800000000000000000000000000000000000000000000000022d9c091e033200000000000000000000000000000000000000000000000000000038d7ea4c6800000000000000000000000000000000000000000000000000000000000000000000000000000000000000000000000000000000000000000000000000000000000000000000000000000000000a7f74ae7c467764b63574369377d1b34b193a8ed00000000000000000000000000000000000000000000000000000000682330cb0000000000000000000000000000000000000000000000000000000000000000",
        "nonce": "0xa9",
        "chainId": "0x783"
      },
      "additionalContracts": [],
      "isFixedGasLimit": false
    },
    {
      "hash": "0x45f9017bc27abfcc6f7931fb2515833f1caf946a14a481e4141afbf13314cf56",
      "transactionType": "CALL",
      "contractName": null,
      "contractAddress": "0xce9f80a0dcd51fb3dd4f0d6bec3afdcaea10c912",
      "function": "redeemCollateral(uint256,uint256,uint256)",
      "arguments": [
        "2491488750000000091253",
        "0",
        "1000000000000000000"
      ],
      "transaction": {
        "from": "0xa7f74ae7c467764b63574369377d1b34b193a8ed",
        "to": "0xce9f80a0dcd51fb3dd4f0d6bec3afdcaea10c912",
        "gas": "0x1d4b47",
        "value": "0x0",
        "input": "0xab6d53bd000000000000000000000000000000000000000000000087105a29a6e006447500000000000000000000000000000000000000000000000000000000000000000000000000000000000000000000000000000000000000000de0b6b3a7640000",
        "nonce": "0xaa",
        "chainId": "0x783"
      },
      "additionalContracts": [],
      "isFixedGasLimit": false
    }
  ],
  "receipts": [
    {
      "status": "0x1",
      "cumulativeGasUsed": "0x32ec1",
      "logs": [
        {
          "address": "0x0000baa0b1678229863c0a941c1056b83a1955f5",
          "topics": [
            "0x8c5be1e5ebec7d5bd14f71427d1e84f3dd0314c0f7b2291e5b200ac8c7c3b925",
            "0x000000000000000000000000a7f74ae7c467764b63574369377d1b34b193a8ed",
            "0x000000000000000000000000991d5546c4b442b4c5fdc4c8b8b8d131deb24702"
          ],
          "data": "0x0000000000000000000000000000000000000000000000000de0b6b3a7640000",
          "blockHash": "0x4507d931905661a9d4e3696e9e6513a41fc84b80312be6514271b8e2009b2ea8",
          "blockNumber": "0x6e2a29",
          "transactionHash": "0x7cc650fa73f4032f3961bfc8a37a6f2fc61eaa92c13bc93ef07b48418cd3ae38",
          "transactionIndex": "0x2",
          "logIndex": "0x3",
          "removed": false
        }
      ],
      "logsBloom": "0x00000000000000200000000000000000000000000004000000000000000000000000002000000000000000000020000000000000000000000400000000200000000000000000000000000000000000000000000000000000000000000000000000000000000000000000000000000000000000000000000000000000000000000000001000000000000000000000000000000000000000000000000000000000020000000000000000000000000000000000000000000000000000000000000000000000000000000000000000000002000000000000000000000000000000000010000000000000000000800000000000000000001000000000000000000000",
      "type": "0x2",
      "transactionHash": "0x7cc650fa73f4032f3961bfc8a37a6f2fc61eaa92c13bc93ef07b48418cd3ae38",
      "transactionIndex": "0x2",
      "blockHash": "0x4507d931905661a9d4e3696e9e6513a41fc84b80312be6514271b8e2009b2ea8",
      "blockNumber": "0x6e2a29",
      "gasUsed": "0x7ac0",
      "effectiveGasPrice": "0x12e",
      "from": "0xa7f74ae7c467764b63574369377d1b34b193a8ed",
      "to": "0x0000baa0b1678229863c0a941c1056b83a1955f5",
      "contractAddress": null,
      "l1BaseFeeScalar": "0x558",
      "l1BlobBaseFee": "0x1",
      "l1BlobBaseFeeScalar": "0xc5fc5",
      "l1Fee": "0xfc0c5a7f",
      "l1GasPrice": "0x732753de",
      "l1GasUsed": "0x640"
    },
    {
      "status": "0x1",
      "cumulativeGasUsed": "0x11301",
      "logs": [
        {
          "address": "0x5d3a1ff2b6bab83b63cd9ad0787074081a52ef34",
          "topics": [
            "0x8c5be1e5ebec7d5bd14f71427d1e84f3dd0314c0f7b2291e5b200ac8c7c3b925",
            "0x000000000000000000000000a7f74ae7c467764b63574369377d1b34b193a8ed",
            "0x000000000000000000000000991d5546c4b442b4c5fdc4c8b8b8d131deb24702"
          ],
          "data": "0x0000000000000000000000000000000000000000000000000de0b6b3a7640000",
          "blockHash": "0x6d214d8827633abd0c0f0faa6a483cf4b54377d91db6a6889c521a59447e4ea1",
          "blockNumber": "0x6e2a2c",
          "transactionHash": "0x442c9c188d5a16e0802535711754b1d5939d9d03a9cf1d74be054fef822225b1",
          "transactionIndex": "0x1",
          "logIndex": "0x0",
          "removed": false
        }
      ],
      "logsBloom": "0x00000000000000200000000000000000000000000000000000000000000000000000002000000000000000000020000000000000000000000400000000200000000000000000000000000000000000000000000000000000000000000000000000000000000000000000000000000000000000000000000000000000000000000000001008000000000000000000000000000000000000000000000000000000020000000000000000000000000000000000000000000000000000100000000000000000000000000000000400000002000000000000000000000000000000000010000000000000000000000000000000000000000000000000000000000000",
      "type": "0x2",
      "transactionHash": "0x442c9c188d5a16e0802535711754b1d5939d9d03a9cf1d74be054fef822225b1",
      "transactionIndex": "0x1",
      "blockHash": "0x6d214d8827633abd0c0f0faa6a483cf4b54377d91db6a6889c521a59447e4ea1",
      "blockNumber": "0x6e2a2c",
      "gasUsed": "0x678f",
      "effectiveGasPrice": "0x12e",
      "from": "0xa7f74ae7c467764b63574369377d1b34b193a8ed",
      "to": "0x5d3a1ff2b6bab83b63cd9ad0787074081a52ef34",
      "contractAddress": null,
      "l1BaseFeeScalar": "0x558",
      "l1BlobBaseFee": "0x1",
      "l1BlobBaseFeeScalar": "0xc5fc5",
      "l1Fee": "0xfc0c5a7f",
      "l1GasPrice": "0x732753de",
      "l1GasUsed": "0x640"
    },
    {
      "status": "0x1",
      "cumulativeGasUsed": "0xb000f",
      "logs": [
        {
          "address": "0x0000baa0b1678229863c0a941c1056b83a1955f5",
          "topics": [
            "0xddf252ad1be2c89b69c2b068fc378daa952ba7f163c4a11628f55a4df523b3ef",
            "0x000000000000000000000000a7f74ae7c467764b63574369377d1b34b193a8ed",
            "0x000000000000000000000000870177d19151f102e519f145d8cf5965ae43c288"
          ],
          "data": "0x0000000000000000000000000000000000000000000000000de0b6b3a7629b92",
          "blockHash": "0x88fc6b936bf4181996652f26b54e058229e2d97f69c2316d5458a82a47bfbbd3",
          "blockNumber": "0x6e2a2f",
          "transactionHash": "0xae60e55bbecb4391978c3427a3f925560813b462e9e97e07e63f89003f97cc98",
          "transactionIndex": "0x1",
          "logIndex": "0x0",
          "removed": false
        },
        {
          "address": "0x5d3a1ff2b6bab83b63cd9ad0787074081a52ef34",
          "topics": [
            "0xddf252ad1be2c89b69c2b068fc378daa952ba7f163c4a11628f55a4df523b3ef",
            "0x000000000000000000000000a7f74ae7c467764b63574369377d1b34b193a8ed",
            "0x000000000000000000000000870177d19151f102e519f145d8cf5965ae43c288"
          ],
          "data": "0x00000000000000000000000000000000000000000000000000000000000f2784",
          "blockHash": "0x88fc6b936bf4181996652f26b54e058229e2d97f69c2316d5458a82a47bfbbd3",
          "blockNumber": "0x6e2a2f",
          "transactionHash": "0xae60e55bbecb4391978c3427a3f925560813b462e9e97e07e63f89003f97cc98",
          "transactionIndex": "0x1",
          "logIndex": "0x1",
          "removed": false
        },
        {
          "address": "0x870177d19151f102e519f145d8cf5965ae43c288",
          "topics": [
            "0x7a53080ba414158be7ec69b987b5fb7d07dee101fe85488f0853ae16239d0bde",
            "0x000000000000000000000000991d5546c4b442b4c5fdc4c8b8b8d131deb24702",
            "0xfffffffffffffffffffffffffffffffffffffffffffffffffffffffffffbb144",
            "0xfffffffffffffffffffffffffffffffffffffffffffffffffffffffffffbe024"
          ],
          "data": "0x000000000000000000000000991d5546c4b442b4c5fdc4c8b8b8d131deb247020000000000000000000000000000000000000000000000000000037f4bafbe400000000000000000000000000000000000000000000000000de0b6b3a7629b9200000000000000000000000000000000000000000000000000000000000f2784",
          "blockHash": "0x88fc6b936bf4181996652f26b54e058229e2d97f69c2316d5458a82a47bfbbd3",
          "blockNumber": "0x6e2a2f",
          "transactionHash": "0xae60e55bbecb4391978c3427a3f925560813b462e9e97e07e63f89003f97cc98",
          "transactionIndex": "0x1",
          "logIndex": "0x2",
          "removed": false
        },
        {
          "address": "0x991d5546c4b442b4c5fdc4c8b8b8d131deb24702",
          "topics": [
            "0xddf252ad1be2c89b69c2b068fc378daa952ba7f163c4a11628f55a4df523b3ef",
            "0x0000000000000000000000000000000000000000000000000000000000000000",
            "0x000000000000000000000000a7f74ae7c467764b63574369377d1b34b193a8ed",
            "0x00000000000000000000000000000000000000000000000000000000000004ff"
          ],
          "data": "0x",
          "blockHash": "0x88fc6b936bf4181996652f26b54e058229e2d97f69c2316d5458a82a47bfbbd3",
          "blockNumber": "0x6e2a2f",
          "transactionHash": "0xae60e55bbecb4391978c3427a3f925560813b462e9e97e07e63f89003f97cc98",
          "transactionIndex": "0x1",
          "logIndex": "0x3",
          "removed": false
        },
        {
          "address": "0x991d5546c4b442b4c5fdc4c8b8b8d131deb24702",
          "topics": [
            "0x3067048beee31b25b2f1681f88dac838c8bba36af25bfb2b7cf7473a5847e35f",
            "0x00000000000000000000000000000000000000000000000000000000000004ff"
          ],
          "data": "0x0000000000000000000000000000000000000000000000000000037f4bafbe400000000000000000000000000000000000000000000000000de0b6b3a7629b9200000000000000000000000000000000000000000000000000000000000f2784",
          "blockHash": "0x88fc6b936bf4181996652f26b54e058229e2d97f69c2316d5458a82a47bfbbd3",
          "blockNumber": "0x6e2a2f",
          "transactionHash": "0xae60e55bbecb4391978c3427a3f925560813b462e9e97e07e63f89003f97cc98",
          "transactionIndex": "0x1",
          "logIndex": "0x4",
          "removed": false
        }
      ],
      "logsBloom": "0x00040000200000210000100000000000000000000004000000000000000000000000202000000000000008000020000000000000200000000400000000080000000000002000000000000008000000000000000000000800000000000000000000000000020000000000020000400800000000000a00000000000010000000000000001008000000000000000000000000000000000000200000000000000000000000000000000000040000000000000000008000000000000000100000000000000002000000000000080400000002000000000000000000000000000021000000000008040000000000800000000000000000001000000000000000000800",
      "type": "0x2",
      "transactionHash": "0xae60e55bbecb4391978c3427a3f925560813b462e9e97e07e63f89003f97cc98",
      "transactionIndex": "0x1",
      "blockHash": "0x88fc6b936bf4181996652f26b54e058229e2d97f69c2316d5458a82a47bfbbd3",
      "blockNumber": "0x6e2a2f",
      "gasUsed": "0xa549d",
      "effectiveGasPrice": "0x12e",
      "from": "0xa7f74ae7c467764b63574369377d1b34b193a8ed",
      "to": "0x991d5546c4b442b4c5fdc4c8b8b8d131deb24702",
      "contractAddress": null,
      "l1BaseFeeScalar": "0x558",
      "l1BlobBaseFee": "0x1",
      "l1BlobBaseFeeScalar": "0xc5fc5",
      "l1Fee": "0x19ff2dbc1",
      "l1GasPrice": "0x73da98a6",
      "l1GasUsed": "0xa40"
    },
    {
      "status": "0x1",
      "cumulativeGasUsed": "0x1966f",
      "logs": [],
      "logsBloom": "0x00000000000000000000000000000000000000000000000000000000000000000000000000000000000000000000000000000000000000000000000000000000000000000000000000000000000000000000000000000000000000000000000000000000000000000000000000000000000000000000000000000000000000000000000000000000000000000000000000000000000000000000000000000000000000000000000000000000000000000000000000000000000000000000000000000000000000000000000000000000000000000000000000000000000000000000000000000000000000000000000000000000000000000000000000000000",
      "type": "0x2",
      "transactionHash": "0x3085f2f18a8a3ea204e21f9ab8e350235506b411bd21456d782ac3e1ce1008ee",
      "transactionIndex": "0x1",
      "blockHash": "0x7d35b61b0b176851e9e79833aebcf62b5ede11c9240d6365b832f636c9603369",
      "blockNumber": "0x6e2a32",
      "gasUsed": "0xeafd",
      "effectiveGasPrice": "0x12e",
      "from": "0xa7f74ae7c467764b63574369377d1b34b193a8ed",
      "to": "0x030e6445a915e92b9bfcd850e76b6547249e1576",
      "contractAddress": null,
      "l1BaseFeeScalar": "0x558",
      "l1BlobBaseFee": "0x1",
      "l1BlobBaseFeeScalar": "0xc5fc5",
      "l1Fee": "0xfd94bc9d",
      "l1GasPrice": "0x73da98a6",
      "l1GasUsed": "0x640"
    },
    {
      "status": "0x1",
      "cumulativeGasUsed": "0x25d08",
      "logs": [
        {
          "address": "0x0000baa0b1678229863c0a941c1056b83a1955f5",
          "topics": [
            "0x8c5be1e5ebec7d5bd14f71427d1e84f3dd0314c0f7b2291e5b200ac8c7c3b925",
            "0x000000000000000000000000a7f74ae7c467764b63574369377d1b34b193a8ed",
            "0x000000000000000000000000991d5546c4b442b4c5fdc4c8b8b8d131deb24702"
          ],
          "data": "0x00000000000000000000000000000000000000000000000022d9c091e0332000",
          "blockHash": "0xf1bc432bf755c76fc116c0239f43cbc5959945e405952a47c916f27d3f7d7af0",
          "blockNumber": "0x6e2a35",
          "transactionHash": "0x396051efd19a60cfe50694c8e970765826469f06e2efd74b48236f5dda193484",
          "transactionIndex": "0x2",
          "logIndex": "0x1",
          "removed": false
        }
      ],
      "logsBloom": "0x00000000000000200000000000000000000000000004000000000000000000000000002000000000000000000020000000000000000000000400000000200000000000000000000000000000000000000000000000000000000000000000000000000000000000000000000000000000000000000000000000000000000000000000001000000000000000000000000000000000000000000000000000000000020000000000000000000000000000000000000000000000000000000000000000000000000000000000000000000002000000000000000000000000000000000010000000000000000000800000000000000000001000000000000000000000",
      "type": "0x2",
      "transactionHash": "0x396051efd19a60cfe50694c8e970765826469f06e2efd74b48236f5dda193484",
      "transactionIndex": "0x2",
      "blockHash": "0xf1bc432bf755c76fc116c0239f43cbc5959945e405952a47c916f27d3f7d7af0",
      "blockNumber": "0x6e2a35",
      "gasUsed": "0x85bc",
      "effectiveGasPrice": "0x12e",
      "from": "0xa7f74ae7c467764b63574369377d1b34b193a8ed",
      "to": "0x0000baa0b1678229863c0a941c1056b83a1955f5",
      "contractAddress": null,
      "l1BaseFeeScalar": "0x558",
      "l1BlobBaseFee": "0x1",
      "l1BlobBaseFeeScalar": "0xc5fc5",
      "l1Fee": "0xe970d649",
      "l1GasPrice": "0x6aa70371",
      "l1GasUsed": "0x640"
    },
    {
      "status": "0x1",
      "cumulativeGasUsed": "0x15fbb",
      "logs": [
        {
          "address": "0x4200000000000000000000000000000000000006",
          "topics": [
            "0x8c5be1e5ebec7d5bd14f71427d1e84f3dd0314c0f7b2291e5b200ac8c7c3b925",
            "0x000000000000000000000000a7f74ae7c467764b63574369377d1b34b193a8ed",
            "0x000000000000000000000000991d5546c4b442b4c5fdc4c8b8b8d131deb24702"
          ],
          "data": "0x00000000000000000000000000000000000000000000000000038d7ea4c68000",
          "blockHash": "0xb3150e971ad3f219794714e04c4c3480f4346e3f5b5f32e2c8592102760d081c",
          "blockNumber": "0x6e2a38",
          "transactionHash": "0x4579e9ef8bff88ec43debeade8150e69ec7e7da77d293fcfcab6e8cac9695196",
          "transactionIndex": "0x1",
          "logIndex": "0x0",
          "removed": false
        }
      ],
      "logsBloom": "0x00000000000000200000000000000000000000000000000000040000000000000000002000000000000000100020000000000000000000000400000000200000000000000000000000000000000000000000000000000000000000000000000000000000000000000000000000000000000000000000000000000000000000000000001000000000000000000000000000000000002000000000000000000000020000000000000000000000000000000000000000000000000000000000000000000000000000000000000000000002000000000000000000000000000000000010000000000000000000000000000000000000000000000000000000000000",
      "type": "0x2",
      "transactionHash": "0x4579e9ef8bff88ec43debeade8150e69ec7e7da77d293fcfcab6e8cac9695196",
      "transactionIndex": "0x1",
      "blockHash": "0xb3150e971ad3f219794714e04c4c3480f4346e3f5b5f32e2c8592102760d081c",
      "blockNumber": "0x6e2a38",
      "gasUsed": "0xb449",
      "effectiveGasPrice": "0x12e",
      "from": "0xa7f74ae7c467764b63574369377d1b34b193a8ed",
      "to": "0x4200000000000000000000000000000000000006",
      "contractAddress": null,
      "l1BaseFeeScalar": "0x558",
      "l1BlobBaseFee": "0x1",
      "l1BlobBaseFeeScalar": "0xc5fc5",
      "l1Fee": "0xe970d649",
      "l1GasPrice": "0x6aa70371",
      "l1GasUsed": "0x640"
    },
    {
      "status": "0x1",
      "cumulativeGasUsed": "0x66848",
      "logs": [
        {
          "address": "0xb05332e52a7ec8546b0787932b4c4e83b4730474",
          "topics": [
            "0x98636036cb66a9c19a37435efc1e90142190214e8abeb821bdba3f2990dd4c95"
          ],
          "data": "0x0000000000000000000000000000000000000000051bc7e240d91a071715696afffffffffffffffffffffffffffffffffffffffffffffffffffffffffffece2e",
          "blockHash": "0x6fcd5371e96b64d163f33c759103e632a79934ef62a09607675d6f8fa45e8995",
          "blockNumber": "0x6e2a3b",
          "transactionHash": "0xce1a1b69cfcf565f41b0ae6319dc7d2289f07da06b165bb873bc83b0232ccc7f",
          "transactionIndex": "0x1",
          "logIndex": "0x0",
          "removed": false
        },
        {
          "address": "0x04625b046c69577efc40e6c0bb83cdbafab5a55f",
          "topics": [
            "0xab0d57f0df537bb25e80245ef7748fa62353808c54d6e528a9dd20887aed9ac2",
            "0x0000000000000000000000000000baa0b1678229863c0a941c1056b83a1955f5",
            "0x0000000000000000000000004200000000000000000000000000000000000006",
            "0x00000000000000000000000000000000000000000000000000000000000000c8"
          ],
          "data": "0x000000000000000000000000b05332e52a7ec8546b0787932b4c4e83b4730474",
          "blockHash": "0x6fcd5371e96b64d163f33c759103e632a79934ef62a09607675d6f8fa45e8995",
          "blockNumber": "0x6e2a3b",
          "transactionHash": "0xce1a1b69cfcf565f41b0ae6319dc7d2289f07da06b165bb873bc83b0232ccc7f",
          "transactionIndex": "0x1",
          "logIndex": "0x1",
          "removed": false
        }
      ],
      "logsBloom": "0x00000000000000000000000000000020000000000000000000000000800000000000000000000001000000000000000000020000000000000024000000000000000000000000000000000000000000000001000000000000000000000000000000000000000000000000200000000000000090000000000000000000000000080000000000000210000000200000000000000000000000000000000000000000000000000000000000000000000008000000008000000000000000000000080000000800000004000000000000000000200000000000000000000000000000000000000004000000000000000000000000000000000000000000000000000000",
      "type": "0x2",
      "transactionHash": "0xce1a1b69cfcf565f41b0ae6319dc7d2289f07da06b165bb873bc83b0232ccc7f",
      "transactionIndex": "0x1",
      "blockHash": "0x6fcd5371e96b64d163f33c759103e632a79934ef62a09607675d6f8fa45e8995",
      "blockNumber": "0x6e2a3b",
      "gasUsed": "0x5bcee",
      "effectiveGasPrice": "0x12e",
      "from": "0xa7f74ae7c467764b63574369377d1b34b193a8ed",
      "to": "0x04625b046c69577efc40e6c0bb83cdbafab5a55f",
      "contractAddress": null,
      "l1BaseFeeScalar": "0x558",
      "l1BlobBaseFee": "0x1",
      "l1BlobBaseFeeScalar": "0xc5fc5",
      "l1Fee": "0x1015aceb2",
      "l1GasPrice": "0x72311698",
      "l1GasUsed": "0x66f"
    },
    {
      "status": "0x1",
      "cumulativeGasUsed": "0xa65a3",
      "logs": [
        {
          "address": "0x0000baa0b1678229863c0a941c1056b83a1955f5",
          "topics": [
            "0xddf252ad1be2c89b69c2b068fc378daa952ba7f163c4a11628f55a4df523b3ef",
            "0x000000000000000000000000a7f74ae7c467764b63574369377d1b34b193a8ed",
            "0x000000000000000000000000b05332e52a7ec8546b0787932b4c4e83b4730474"
          ],
          "data": "0x00000000000000000000000000000000000000000000000022d9c091e0331ff9",
          "blockHash": "0xfba4b70154bc5b632ddbd318021275469a260987991b2cb4f838f050ab217fcb",
          "blockNumber": "0x6e2a3e",
          "transactionHash": "0x984dc08d39f44687bba567bc5f9197526a26ba4973931b45599018e149b6ebd3",
          "transactionIndex": "0x1",
          "logIndex": "0x0",
          "removed": false
        },
        {
          "address": "0x4200000000000000000000000000000000000006",
          "topics": [
            "0xddf252ad1be2c89b69c2b068fc378daa952ba7f163c4a11628f55a4df523b3ef",
            "0x000000000000000000000000a7f74ae7c467764b63574369377d1b34b193a8ed",
            "0x000000000000000000000000b05332e52a7ec8546b0787932b4c4e83b4730474"
          ],
          "data": "0x00000000000000000000000000000000000000000000000000037694205faf4a",
          "blockHash": "0xfba4b70154bc5b632ddbd318021275469a260987991b2cb4f838f050ab217fcb",
          "blockNumber": "0x6e2a3e",
          "transactionHash": "0x984dc08d39f44687bba567bc5f9197526a26ba4973931b45599018e149b6ebd3",
          "transactionIndex": "0x1",
          "logIndex": "0x1",
          "removed": false
        },
        {
          "address": "0xb05332e52a7ec8546b0787932b4c4e83b4730474",
          "topics": [
            "0x7a53080ba414158be7ec69b987b5fb7d07dee101fe85488f0853ae16239d0bde",
            "0x000000000000000000000000991d5546c4b442b4c5fdc4c8b8b8d131deb24702",
            "0xfffffffffffffffffffffffffffffffffffffffffffffffffffffffffffeb718",
            "0xfffffffffffffffffffffffffffffffffffffffffffffffffffffffffffee5f8"
          ],
          "data": "0x000000000000000000000000991d5546c4b442b4c5fdc4c8b8b8d131deb2470200000000000000000000000000000000000000000000000002a64e4f6c3be48800000000000000000000000000000000000000000000000022d9c091e0331ff900000000000000000000000000000000000000000000000000037694205faf4a",
          "blockHash": "0xfba4b70154bc5b632ddbd318021275469a260987991b2cb4f838f050ab217fcb",
          "blockNumber": "0x6e2a3e",
          "transactionHash": "0x984dc08d39f44687bba567bc5f9197526a26ba4973931b45599018e149b6ebd3",
          "transactionIndex": "0x1",
          "logIndex": "0x2",
          "removed": false
        },
        {
          "address": "0x991d5546c4b442b4c5fdc4c8b8b8d131deb24702",
          "topics": [
            "0xddf252ad1be2c89b69c2b068fc378daa952ba7f163c4a11628f55a4df523b3ef",
            "0x0000000000000000000000000000000000000000000000000000000000000000",
            "0x000000000000000000000000a7f74ae7c467764b63574369377d1b34b193a8ed",
            "0x0000000000000000000000000000000000000000000000000000000000000500"
          ],
          "data": "0x",
          "blockHash": "0xfba4b70154bc5b632ddbd318021275469a260987991b2cb4f838f050ab217fcb",
          "blockNumber": "0x6e2a3e",
          "transactionHash": "0x984dc08d39f44687bba567bc5f9197526a26ba4973931b45599018e149b6ebd3",
          "transactionIndex": "0x1",
          "logIndex": "0x3",
          "removed": false
        },
        {
          "address": "0x991d5546c4b442b4c5fdc4c8b8b8d131deb24702",
          "topics": [
            "0x3067048beee31b25b2f1681f88dac838c8bba36af25bfb2b7cf7473a5847e35f",
            "0x0000000000000000000000000000000000000000000000000000000000000500"
          ],
          "data": "0x00000000000000000000000000000000000000000000000002a64e4f6c3be48800000000000000000000000000000000000000000000000022d9c091e0331ff900000000000000000000000000000000000000000000000000037694205faf4a",
          "blockHash": "0xfba4b70154bc5b632ddbd318021275469a260987991b2cb4f838f050ab217fcb",
          "blockNumber": "0x6e2a3e",
          "transactionHash": "0x984dc08d39f44687bba567bc5f9197526a26ba4973931b45599018e149b6ebd3",
          "transactionIndex": "0x1",
          "logIndex": "0x4",
          "removed": false
        }
      ],
      "logsBloom": "0x00000000000000200000100000000000000010000004000000040000000000000400002000000000000000100022000000000000000000000400000000000000000000002000000002000008000000000000000000000800800010000000000008000000420000000000000000000800000000000800000000000010000000080020001008000200000000000040000000004000002000000000000000000000000000000000000000000000000008000000008000000000000100000000000000000002000000000000080000000002000000000000000000000000000020000000000000000000000000800000000000000000001000000000000000000800",
      "type": "0x2",
      "transactionHash": "0x984dc08d39f44687bba567bc5f9197526a26ba4973931b45599018e149b6ebd3",
      "transactionIndex": "0x1",
      "blockHash": "0xfba4b70154bc5b632ddbd318021275469a260987991b2cb4f838f050ab217fcb",
      "blockNumber": "0x6e2a3e",
      "gasUsed": "0x9ba49",
      "effectiveGasPrice": "0x12e",
      "from": "0xa7f74ae7c467764b63574369377d1b34b193a8ed",
      "to": "0x991d5546c4b442b4c5fdc4c8b8b8d131deb24702",
      "contractAddress": null,
      "l1BaseFeeScalar": "0x558",
      "l1BlobBaseFee": "0x1",
      "l1BlobBaseFeeScalar": "0xc5fc5",
      "l1Fee": "0x1894142c2",
      "l1GasPrice": "0x72311698",
      "l1GasUsed": "0x9d5"
    },
    {
      "status": "0x1",
      "cumulativeGasUsed": "0x189ae8",
      "logs": [
        {
          "address": "0xcbf2b01f4673232d84fd6c12ab5c814f18f21e66",
          "topics": [
            "0x0fba2673863b12c7b8463f3fa2f9b0cb1d534c573cdec5b5d895ee00d6ce6f5e",
            "0x2611894b50590eb553d37ed666175700b022630821b5f02e4afc8909669f7549"
          ],
          "data": "0x0000000000000000000000000000000000000000000000001e560d0a287e856e00000000000000000000000000000000000000000000000003fce5117e894d4100000000000000000000000000000000000000000000000003fce5117e894d4100000000000000000000000000000000000000000000000000b1a2bc2ec5000000000000000000000000000000000000000000000000000000000000000000000000000000000000000000000000000000000000000000000000000000000000",
          "blockHash": "0x20d4d459c74b4392b28b02fb60d5dc75189dda781291f99d64aff7a7543bb0c4",
          "blockNumber": "0x6e2a41",
          "transactionHash": "0x45f9017bc27abfcc6f7931fb2515833f1caf946a14a481e4141afbf13314cf56",
          "transactionIndex": "0x2",
          "logIndex": "0x6",
          "removed": false
        },
        {
          "address": "0xcbf2b01f4673232d84fd6c12ab5c814f18f21e66",
          "topics": [
            "0x962110f281c1213763cd97a546b337b3cbfd25a31ea9723e9d8b7376ba45da1a",
            "0x2611894b50590eb553d37ed666175700b022630821b5f02e4afc8909669f7549"
          ],
          "data": "0x000000000000000000000000000000000000000000000000000000000000000600000000000000000000000000000000000000000000000000b1a2bc2ec5000000000000000000000000000000000000000000000000000000000000000000000000000000000000000000000000000000000000000000000000000000000000ffffffffffffffffffffffffffffffffffffffffffffffe4fcba9945689d79f000000000000000000000000000000000000000000000000000000000000000000000000000000000000000000000000000000000000000000000000000000000",
          "blockHash": "0x20d4d459c74b4392b28b02fb60d5dc75189dda781291f99d64aff7a7543bb0c4",
          "blockNumber": "0x6e2a41",
          "transactionHash": "0x45f9017bc27abfcc6f7931fb2515833f1caf946a14a481e4141afbf13314cf56",
          "transactionIndex": "0x2",
          "logIndex": "0x7",
          "removed": false
        },
        {
          "address": "0xcbf2b01f4673232d84fd6c12ab5c814f18f21e66",
          "topics": [
            "0xc7e8309b9b14e7a8561ed352b9fd8733de32417fb7b6a69f5671f79e7bb29ddd",
            "0x2611894b50590eb553d37ed666175700b022630821b5f02e4afc8909669f7549"
          ],
          "data": "0x00000000000000000000000000000000000000000000000002c0f3941e563b06",
          "blockHash": "0x20d4d459c74b4392b28b02fb60d5dc75189dda781291f99d64aff7a7543bb0c4",
          "blockNumber": "0x6e2a41",
          "transactionHash": "0x45f9017bc27abfcc6f7931fb2515833f1caf946a14a481e4141afbf13314cf56",
          "transactionIndex": "0x2",
          "logIndex": "0x8",
          "removed": false
        },
        {
          "address": "0xcbf2b01f4673232d84fd6c12ab5c814f18f21e66",
          "topics": [
            "0x84ec8e1674d62e3a8ff294b1a7f53527d2d10291765fadf94e0ce431b2334334"
          ],
          "data": "0x00000000000000000000000000000000000000000000001b034566ba9762861000000000000000000000000000000000000000000000001b034566ba97628610000000000000000000000000000000000000000000000000000000000000000000000000000000000000000000000000000000000000000002c0f3941e563b06000000000000000000000000000000000000000000000088229839d3c7b50000000000000000000000000000000000000000000000000088229839d3c7b50000",
          "blockHash": "0x20d4d459c74b4392b28b02fb60d5dc75189dda781291f99d64aff7a7543bb0c4",
          "blockNumber": "0x6e2a41",
          "transactionHash": "0x45f9017bc27abfcc6f7931fb2515833f1caf946a14a481e4141afbf13314cf56",
          "transactionIndex": "0x2",
          "logIndex": "0x9",
          "removed": false
        },
        {
          "address": "0x0000baa0b1678229863c0a941c1056b83a1955f5",
          "topics": [
            "0xddf252ad1be2c89b69c2b068fc378daa952ba7f163c4a11628f55a4df523b3ef",
            "0x0000000000000000000000000000000000000000000000000000000000000000",
            "0x0000000000000000000000009c339bb827555ae214df17b78c1aa28acee183ce"
          ],
          "data": "0x000000000000000000000000000000000000000000000000000288cc4adf877f",
          "blockHash": "0x20d4d459c74b4392b28b02fb60d5dc75189dda781291f99d64aff7a7543bb0c4",
          "blockNumber": "0x6e2a41",
          "transactionHash": "0x45f9017bc27abfcc6f7931fb2515833f1caf946a14a481e4141afbf13314cf56",
          "transactionIndex": "0x2",
          "logIndex": "0xa",
          "removed": false
        },
        {
          "address": "0x0000baa0b1678229863c0a941c1056b83a1955f5",
          "topics": [
            "0xddf252ad1be2c89b69c2b068fc378daa952ba7f163c4a11628f55a4df523b3ef",
            "0x0000000000000000000000000000000000000000000000000000000000000000",
            "0x0000000000000000000000006056f2825869a58e613daa2a0554c7ed52fa606f"
          ],
          "data": "0x00000000000000000000000000000000000000000000000000079a64e09e967b",
          "blockHash": "0x20d4d459c74b4392b28b02fb60d5dc75189dda781291f99d64aff7a7543bb0c4",
          "blockNumber": "0x6e2a41",
          "transactionHash": "0x45f9017bc27abfcc6f7931fb2515833f1caf946a14a481e4141afbf13314cf56",
          "transactionIndex": "0x2",
          "logIndex": "0xb",
          "removed": false
        },
        {
          "address": "0x6056f2825869a58e613daa2a0554c7ed52fa606f",
          "topics": [
            "0xe367a96648d02811ced605ca0b93efb0b7fe59bda272f8179c454ea64133e756"
          ],
          "data": "0x000000000000000000000000000000000045dfe8751762420644628b171c00000000000000000000000000000000000000000000000000000000000000000000",
          "blockHash": "0x20d4d459c74b4392b28b02fb60d5dc75189dda781291f99d64aff7a7543bb0c4",
          "blockNumber": "0x6e2a41",
          "transactionHash": "0x45f9017bc27abfcc6f7931fb2515833f1caf946a14a481e4141afbf13314cf56",
          "transactionIndex": "0x2",
          "logIndex": "0xc",
          "removed": false
        },
        {
          "address": "0xf2a7622e1b6d1d7540d6a7248f291d0d57a51bf4",
          "topics": [
            "0x0fba2673863b12c7b8463f3fa2f9b0cb1d534c573cdec5b5d895ee00d6ce6f5e",
            "0x2611894b50590eb553d37ed666175700b022630821b5f02e4afc8909669f7549"
          ],
          "data": "0x0000000000000000000000000000000000000000000000001e560cfcff8924680000000000000000000000000000000000000000000000000460f9c58172a7ba0000000000000000000000000000000000000000000000000460f9c58172a7ba00000000000000000000000000000000000000000000000000b1a2bc2ec5000000000000000000000000000000000000000000000000000000000000000000000000000000000000000000000000000000000000000000000000000000000000",
          "blockHash": "0x20d4d459c74b4392b28b02fb60d5dc75189dda781291f99d64aff7a7543bb0c4",
          "blockNumber": "0x6e2a41",
          "transactionHash": "0x45f9017bc27abfcc6f7931fb2515833f1caf946a14a481e4141afbf13314cf56",
          "transactionIndex": "0x2",
          "logIndex": "0xd",
          "removed": false
        },
        {
          "address": "0xf2a7622e1b6d1d7540d6a7248f291d0d57a51bf4",
          "topics": [
            "0x962110f281c1213763cd97a546b337b3cbfd25a31ea9723e9d8b7376ba45da1a",
            "0x2611894b50590eb553d37ed666175700b022630821b5f02e4afc8909669f7549"
          ],
          "data": "0x000000000000000000000000000000000000000000000000000000000000000600000000000000000000000000000000000000000000000000b1a2bc2ec5000000000000000000000000000000000000000000000000000000000000000000000000000000000000000000000000000000000000000000000000000000000000ffffffffffffffffffffffffffffffffffffffffffffffe4fcbaaeded11ae95300000000000000000000000000000000000000000000000000000000000000000000000000000000000000000000000000000000000000000000000000000000",
          "blockHash": "0x20d4d459c74b4392b28b02fb60d5dc75189dda781291f99d64aff7a7543bb0c4",
          "blockNumber": "0x6e2a41",
          "transactionHash": "0x45f9017bc27abfcc6f7931fb2515833f1caf946a14a481e4141afbf13314cf56",
          "transactionIndex": "0x2",
          "logIndex": "0xe",
          "removed": false
        },
        {
          "address": "0xf2a7622e1b6d1d7540d6a7248f291d0d57a51bf4",
          "topics": [
            "0xc7e8309b9b14e7a8561ed352b9fd8733de32417fb7b6a69f5671f79e7bb29ddd",
            "0x2611894b50590eb553d37ed666175700b022630821b5f02e4afc8909669f7549"
          ],
          "data": "0x00000000000000000000000000000000000000000000000002a54d59aca68f21",
          "blockHash": "0x20d4d459c74b4392b28b02fb60d5dc75189dda781291f99d64aff7a7543bb0c4",
          "blockNumber": "0x6e2a41",
          "transactionHash": "0x45f9017bc27abfcc6f7931fb2515833f1caf946a14a481e4141afbf13314cf56",
          "transactionIndex": "0x2",
          "logIndex": "0xf",
          "removed": false
        },
        {
          "address": "0xf2a7622e1b6d1d7540d6a7248f291d0d57a51bf4",
          "topics": [
            "0x84ec8e1674d62e3a8ff294b1a7f53527d2d10291765fadf94e0ce431b2334334"
          ],
          "data": "0x00000000000000000000000000000000000000000000001b034551212ee516ad00000000000000000000000000000000000000000000001b034551212ee516ad000000000000000000000000000000000000000000000000000000000000000000000000000000000000000000000000000000000000000002a54d59aca68f2100000000000000000000000000000000000000000000008db14a26b91af9e10000000000000000000000000000000000000000000000008db14a26b91af9e100",
          "blockHash": "0x20d4d459c74b4392b28b02fb60d5dc75189dda781291f99d64aff7a7543bb0c4",
          "blockNumber": "0x6e2a41",
          "transactionHash": "0x45f9017bc27abfcc6f7931fb2515833f1caf946a14a481e4141afbf13314cf56",
          "transactionIndex": "0x2",
          "logIndex": "0x10",
          "removed": false
        },
        {
          "address": "0x0000baa0b1678229863c0a941c1056b83a1955f5",
          "topics": [
            "0xddf252ad1be2c89b69c2b068fc378daa952ba7f163c4a11628f55a4df523b3ef",
            "0x0000000000000000000000000000000000000000000000000000000000000000",
            "0x0000000000000000000000009c339bb827555ae214df17b78c1aa28acee183ce"
          ],
          "data": "0x000000000000000000000000000000000000000000000000000286a20920d90e",
          "blockHash": "0x20d4d459c74b4392b28b02fb60d5dc75189dda781291f99d64aff7a7543bb0c4",
          "blockNumber": "0x6e2a41",
          "transactionHash": "0x45f9017bc27abfcc6f7931fb2515833f1caf946a14a481e4141afbf13314cf56",
          "transactionIndex": "0x2",
          "logIndex": "0x11",
          "removed": false
        },
        {
          "address": "0x0000baa0b1678229863c0a941c1056b83a1955f5",
          "topics": [
            "0xddf252ad1be2c89b69c2b068fc378daa952ba7f163c4a11628f55a4df523b3ef",
            "0x0000000000000000000000000000000000000000000000000000000000000000",
            "0x00000000000000000000000066ba6d543182f3404a87f8202379212bd60ee861"
          ],
          "data": "0x000000000000000000000000000000000000000000000000000793e61b628b29",
          "blockHash": "0x20d4d459c74b4392b28b02fb60d5dc75189dda781291f99d64aff7a7543bb0c4",
          "blockNumber": "0x6e2a41",
          "transactionHash": "0x45f9017bc27abfcc6f7931fb2515833f1caf946a14a481e4141afbf13314cf56",
          "transactionIndex": "0x2",
          "logIndex": "0x12",
          "removed": false
        },
        {
          "address": "0x66ba6d543182f3404a87f8202379212bd60ee861",
          "topics": [
            "0xe367a96648d02811ced605ca0b93efb0b7fe59bda272f8179c454ea64133e756"
          ],
          "data": "0x000000000000000000000000000000000045df071c2719b3a91864337f4000000000000000000000000000000000000000000000000000000000000000000000",
          "blockHash": "0x20d4d459c74b4392b28b02fb60d5dc75189dda781291f99d64aff7a7543bb0c4",
          "blockNumber": "0x6e2a41",
          "transactionHash": "0x45f9017bc27abfcc6f7931fb2515833f1caf946a14a481e4141afbf13314cf56",
          "transactionIndex": "0x2",
          "logIndex": "0x13",
          "removed": false
        },
        {
          "address": "0x8e58db3278c07014339e808994464a5851c2d91e",
          "topics": [
            "0x0fba2673863b12c7b8463f3fa2f9b0cb1d534c573cdec5b5d895ee00d6ce6f5e",
            "0x2611894b50590eb553d37ed666175700b022630821b5f02e4afc8909669f7549"
          ],
          "data": "0x0000000000000000000000000000000000000000000000001e560cefd693c36200000000000000000000000000000000000000000000000003e9ab36dc6d122400000000000000000000000000000000000000000000000003e9ab36dc6d122400000000000000000000000000000000000000000000000000b1a2bc2ec5000000000000000000000000000000000000000000000000000000000000000000000000000000000000000000000000000000000000000000000000000000000000",
          "blockHash": "0x20d4d459c74b4392b28b02fb60d5dc75189dda781291f99d64aff7a7543bb0c4",
          "blockNumber": "0x6e2a41",
          "transactionHash": "0x45f9017bc27abfcc6f7931fb2515833f1caf946a14a481e4141afbf13314cf56",
          "transactionIndex": "0x2",
          "logIndex": "0x14",
          "removed": false
        },
        {
          "address": "0x8e58db3278c07014339e808994464a5851c2d91e",
          "topics": [
            "0x962110f281c1213763cd97a546b337b3cbfd25a31ea9723e9d8b7376ba45da1a",
            "0x2611894b50590eb553d37ed666175700b022630821b5f02e4afc8909669f7549"
          ],
          "data": "0x000000000000000000000000000000000000000000000000000000000000000600000000000000000000000000000000000000000000000000b1a2bc2ec5000000000000000000000000000000000000000000000000000000000000000000000000000000000000000000000000000000000000000000000000000000000000ffffffffffffffffffffffffffffffffffffffffffffffe4fcbac478399858b600000000000000000000000000000000000000000000000000000000000000000000000000000000000000000000000000000000000000000000000000000000",
          "blockHash": "0x20d4d459c74b4392b28b02fb60d5dc75189dda781291f99d64aff7a7543bb0c4",
          "blockNumber": "0x6e2a41",
          "transactionHash": "0x45f9017bc27abfcc6f7931fb2515833f1caf946a14a481e4141afbf13314cf56",
          "transactionIndex": "0x2",
          "logIndex": "0x15",
          "removed": false
        },
        {
          "address": "0x8e58db3278c07014339e808994464a5851c2d91e",
          "topics": [
            "0xc7e8309b9b14e7a8561ed352b9fd8733de32417fb7b6a69f5671f79e7bb29ddd",
            "0x2611894b50590eb553d37ed666175700b022630821b5f02e4afc8909669f7549"
          ],
          "data": "0x0000000000000000000000000000000000000000000000000285905053c8226a",
          "blockHash": "0x20d4d459c74b4392b28b02fb60d5dc75189dda781291f99d64aff7a7543bb0c4",
          "blockNumber": "0x6e2a41",
          "transactionHash": "0x45f9017bc27abfcc6f7931fb2515833f1caf946a14a481e4141afbf13314cf56",
          "transactionIndex": "0x2",
          "logIndex": "0x16",
          "removed": false
        },
        {
          "address": "0x8e58db3278c07014339e808994464a5851c2d91e",
          "topics": [
            "0x84ec8e1674d62e3a8ff294b1a7f53527d2d10291765fadf94e0ce431b2334334"
          ],
          "data": "0x00000000000000000000000000000000000000000000001b03453b87c667a74a00000000000000000000000000000000000000000000001b03453b87c667a74a00000000000000000000000000000000000000000000000000000000000000000000000000000000000000000000000000000000000000000285905053c8226a000000000000000000000000000000000000000000000094a89fb4f987c1ad00000000000000000000000000000000000000000000000094a89fb4f987c1ad00",
          "blockHash": "0x20d4d459c74b4392b28b02fb60d5dc75189dda781291f99d64aff7a7543bb0c4",
          "blockNumber": "0x6e2a41",
          "transactionHash": "0x45f9017bc27abfcc6f7931fb2515833f1caf946a14a481e4141afbf13314cf56",
          "transactionIndex": "0x2",
          "logIndex": "0x17",
          "removed": false
        },
        {
          "address": "0x0000baa0b1678229863c0a941c1056b83a1955f5",
          "topics": [
            "0xddf252ad1be2c89b69c2b068fc378daa952ba7f163c4a11628f55a4df523b3ef",
            "0x0000000000000000000000000000000000000000000000000000000000000000",
            "0x0000000000000000000000009c339bb827555ae214df17b78c1aa28acee183ce"
          ],
          "data": "0x00000000000000000000000000000000000000000000000000028477c7622a9d",
          "blockHash": "0x20d4d459c74b4392b28b02fb60d5dc75189dda781291f99d64aff7a7543bb0c4",
          "blockNumber": "0x6e2a41",
          "transactionHash": "0x45f9017bc27abfcc6f7931fb2515833f1caf946a14a481e4141afbf13314cf56",
          "transactionIndex": "0x2",
          "logIndex": "0x18",
          "removed": false
        },
        {
          "address": "0x0000baa0b1678229863c0a941c1056b83a1955f5",
          "topics": [
            "0xddf252ad1be2c89b69c2b068fc378daa952ba7f163c4a11628f55a4df523b3ef",
            "0x0000000000000000000000000000000000000000000000000000000000000000",
            "0x00000000000000000000000087c2e5d618d9f94bfcd36eaff7483971fede6465"
          ],
          "data": "0x00000000000000000000000000000000000000000000000000078d6756267fd6",
          "blockHash": "0x20d4d459c74b4392b28b02fb60d5dc75189dda781291f99d64aff7a7543bb0c4",
          "blockNumber": "0x6e2a41",
          "transactionHash": "0x45f9017bc27abfcc6f7931fb2515833f1caf946a14a481e4141afbf13314cf56",
          "transactionIndex": "0x2",
          "logIndex": "0x19",
          "removed": false
        },
        {
          "address": "0x87c2e5d618d9f94bfcd36eaff7483971fede6465",
          "topics": [
            "0xe367a96648d02811ced605ca0b93efb0b7fe59bda272f8179c454ea64133e756"
          ],
          "data": "0x000000000000000000000000000000000045de25c336d12559cd1c8f8ec800000000000000000000000000000000000000000000000000000000000000000000",
          "blockHash": "0x20d4d459c74b4392b28b02fb60d5dc75189dda781291f99d64aff7a7543bb0c4",
          "blockNumber": "0x6e2a41",
          "transactionHash": "0x45f9017bc27abfcc6f7931fb2515833f1caf946a14a481e4141afbf13314cf56",
          "transactionIndex": "0x2",
          "logIndex": "0x1a",
          "removed": false
        },
        {
          "address": "0x76a93891d4856a4b4d2ea3039286520e30141fed",
          "topics": [
            "0x0fba2673863b12c7b8463f3fa2f9b0cb1d534c573cdec5b5d895ee00d6ce6f5e",
            "0x2611894b50590eb553d37ed666175700b022630821b5f02e4afc8909669f7549"
          ],
          "data": "0x0000000000000000000000000000000000000000000000001e560ce2ad9e625b000000000000000000000000000000000000000000000dc140a392f0c6a25ffe000000000000000000000000000000000000000000000dc140a392f0c6a25ffe00000000000000000000000000000000000000000000000000b1a2bc2ec5000000000000000000000000000000000000000000000000000000000000000000000000000000000000000000000000000000000000000000000000000000000000",
          "blockHash": "0x20d4d459c74b4392b28b02fb60d5dc75189dda781291f99d64aff7a7543bb0c4",
          "blockNumber": "0x6e2a41",
          "transactionHash": "0x45f9017bc27abfcc6f7931fb2515833f1caf946a14a481e4141afbf13314cf56",
          "transactionIndex": "0x2",
          "logIndex": "0x1b",
          "removed": false
        },
        {
          "address": "0x76a93891d4856a4b4d2ea3039286520e30141fed",
          "topics": [
            "0x962110f281c1213763cd97a546b337b3cbfd25a31ea9723e9d8b7376ba45da1a",
            "0x2611894b50590eb553d37ed666175700b022630821b5f02e4afc8909669f7549"
          ],
          "data": "0x000000000000000000000000000000000000000000000000000000000000000600000000000000000000000000000000000000000000000000b1a2bc2ec5000000000000000000000000000000000000000000000000000000000000000000000000000000000000000000000000000000000000000000000000000000000000ffffffffffffffffffffffffffffffffffffffffffffffe4fcbada11a215c81800000000000000000000000000000000000000000000000000000000000000000000000000000000000000000000000000000000000000000000000000000000",
          "blockHash": "0x20d4d459c74b4392b28b02fb60d5dc75189dda781291f99d64aff7a7543bb0c4",
          "blockNumber": "0x6e2a41",
          "transactionHash": "0x45f9017bc27abfcc6f7931fb2515833f1caf946a14a481e4141afbf13314cf56",
          "transactionIndex": "0x2",
          "logIndex": "0x1c",
          "removed": false
        },
        {
          "address": "0x76a93891d4856a4b4d2ea3039286520e30141fed",
          "topics": [
            "0xc7e8309b9b14e7a8561ed352b9fd8733de32417fb7b6a69f5671f79e7bb29ddd",
            "0x2611894b50590eb553d37ed666175700b022630821b5f02e4afc8909669f7549"
          ],
          "data": "0x0000000000000000000000000000000000000000000007c64b6129e0938f6783",
          "blockHash": "0x20d4d459c74b4392b28b02fb60d5dc75189dda781291f99d64aff7a7543bb0c4",
          "blockNumber": "0x6e2a41",
          "transactionHash": "0x45f9017bc27abfcc6f7931fb2515833f1caf946a14a481e4141afbf13314cf56",
          "transactionIndex": "0x2",
          "logIndex": "0x1d",
          "removed": false
        },
        {
          "address": "0x76a93891d4856a4b4d2ea3039286520e30141fed",
          "topics": [
            "0x84ec8e1674d62e3a8ff294b1a7f53527d2d10291765fadf94e0ce431b2334334"
          ],
          "data": "0x00000000000000000000000000000000000000000000001b034525ee5dea37e800000000000000000000000000000000000000000000001b034525ee5dea37e800000000000000000000000000000000000000000000000000000000000000000000000000000000000000000000000000000000000007c64b6129e0938f6783000000000000000000000000000000000000000000000000003037e3b40d8400000000000000000000000000000000000000000000000000003037e3b40d8400",
          "blockHash": "0x20d4d459c74b4392b28b02fb60d5dc75189dda781291f99d64aff7a7543bb0c4",
          "blockNumber": "0x6e2a41",
          "transactionHash": "0x45f9017bc27abfcc6f7931fb2515833f1caf946a14a481e4141afbf13314cf56",
          "transactionIndex": "0x2",
          "logIndex": "0x1e",
          "removed": false
        },
        {
          "address": "0x0000baa0b1678229863c0a941c1056b83a1955f5",
          "topics": [
            "0xddf252ad1be2c89b69c2b068fc378daa952ba7f163c4a11628f55a4df523b3ef",
            "0x0000000000000000000000000000000000000000000000000000000000000000",
            "0x0000000000000000000000009c339bb827555ae214df17b78c1aa28acee183ce"
          ],
          "data": "0x0000000000000000000000000000000000000000000000000002824d85a37c2c",
          "blockHash": "0x20d4d459c74b4392b28b02fb60d5dc75189dda781291f99d64aff7a7543bb0c4",
          "blockNumber": "0x6e2a41",
          "transactionHash": "0x45f9017bc27abfcc6f7931fb2515833f1caf946a14a481e4141afbf13314cf56",
          "transactionIndex": "0x2",
          "logIndex": "0x1f",
          "removed": false
        },
        {
          "address": "0x0000baa0b1678229863c0a941c1056b83a1955f5",
          "topics": [
            "0xddf252ad1be2c89b69c2b068fc378daa952ba7f163c4a11628f55a4df523b3ef",
            "0x0000000000000000000000000000000000000000000000000000000000000000",
            "0x0000000000000000000000007ba1d55cac848122e8d42c09cddcd26e39ae5925"
          ],
          "data": "0x000000000000000000000000000000000000000000000000000786e890ea7483",
          "blockHash": "0x20d4d459c74b4392b28b02fb60d5dc75189dda781291f99d64aff7a7543bb0c4",
          "blockNumber": "0x6e2a41",
          "transactionHash": "0x45f9017bc27abfcc6f7931fb2515833f1caf946a14a481e4141afbf13314cf56",
          "transactionIndex": "0x2",
          "logIndex": "0x20",
          "removed": false
        },
        {
          "address": "0x7ba1d55cac848122e8d42c09cddcd26e39ae5925",
          "topics": [
            "0xe367a96648d02811ced605ca0b93efb0b7fe59bda272f8179c454ea64133e756"
          ],
          "data": "0x000000000000000000000000000000000045dd446a468896fca11e37f6ec00000000000000000000000000000000000000000000000000000000000000000000",
          "blockHash": "0x20d4d459c74b4392b28b02fb60d5dc75189dda781291f99d64aff7a7543bb0c4",
          "blockNumber": "0x6e2a41",
          "transactionHash": "0x45f9017bc27abfcc6f7931fb2515833f1caf946a14a481e4141afbf13314cf56",
          "transactionIndex": "0x2",
          "logIndex": "0x21",
          "removed": false
        },
        {
          "address": "0x3adf5a24eee0c459d53af3e7ce6ebf19678ee870",
          "topics": [
            "0x0fba2673863b12c7b8463f3fa2f9b0cb1d534c573cdec5b5d895ee00d6ce6f5e",
            "0x2611894b50590eb553d37ed666175700b022630821b5f02e4afc8909669f7549"
          ],
          "data": "0x0000000000000000000000000000000000000000000000001e560cd584a9015400000000000000000000000000000000000000000000000004451901fd57d97200000000000000000000000000000000000000000000000004451901fd57d97200000000000000000000000000000000000000000000000000b1a2bc2ec5000000000000000000000000000000000000000000000000000000000000000000000000000000000000000000000000000000000000000000000000000000000000",
          "blockHash": "0x20d4d459c74b4392b28b02fb60d5dc75189dda781291f99d64aff7a7543bb0c4",
          "blockNumber": "0x6e2a41",
          "transactionHash": "0x45f9017bc27abfcc6f7931fb2515833f1caf946a14a481e4141afbf13314cf56",
          "transactionIndex": "0x2",
          "logIndex": "0x22",
          "removed": false
        },
        {
          "address": "0x3adf5a24eee0c459d53af3e7ce6ebf19678ee870",
          "topics": [
            "0x962110f281c1213763cd97a546b337b3cbfd25a31ea9723e9d8b7376ba45da1a",
            "0x2611894b50590eb553d37ed666175700b022630821b5f02e4afc8909669f7549"
          ],
          "data": "0x000000000000000000000000000000000000000000000000000000000000000600000000000000000000000000000000000000000000000000b1a2bc2ec5000000000000000000000000000000000000000000000000000000000000000000000000000000000000000000000000000000000000000000000000000000000000ffffffffffffffffffffffffffffffffffffffffffffffe4fcbaefab0a93377a00000000000000000000000000000000000000000000000000000000000000000000000000000000000000000000000000000000000000000000000000000000",
          "blockHash": "0x20d4d459c74b4392b28b02fb60d5dc75189dda781291f99d64aff7a7543bb0c4",
          "blockNumber": "0x6e2a41",
          "transactionHash": "0x45f9017bc27abfcc6f7931fb2515833f1caf946a14a481e4141afbf13314cf56",
          "transactionIndex": "0x2",
          "logIndex": "0x23",
          "removed": false
        },
        {
          "address": "0x3adf5a24eee0c459d53af3e7ce6ebf19678ee870",
          "topics": [
            "0xc7e8309b9b14e7a8561ed352b9fd8733de32417fb7b6a69f5671f79e7bb29ddd",
            "0x2611894b50590eb553d37ed666175700b022630821b5f02e4afc8909669f7549"
          ],
          "data": "0x0000000000000000000000000000000000000000000000000294734223230aba",
          "blockHash": "0x20d4d459c74b4392b28b02fb60d5dc75189dda781291f99d64aff7a7543bb0c4",
          "blockNumber": "0x6e2a41",
          "transactionHash": "0x45f9017bc27abfcc6f7931fb2515833f1caf946a14a481e4141afbf13314cf56",
          "transactionIndex": "0x2",
          "logIndex": "0x24",
          "removed": false
        },
        {
          "address": "0x3adf5a24eee0c459d53af3e7ce6ebf19678ee870",
          "topics": [
            "0x84ec8e1674d62e3a8ff294b1a7f53527d2d10291765fadf94e0ce431b2334334"
          ],
          "data": "0x00000000000000000000000000000000000000000000001b03451054f56cc88600000000000000000000000000000000000000000000001b03451054f56cc88600000000000000000000000000000000000000000000000000000000000000000000000000000000000000000000000000000000000000000294734223230aba0000000000000000000000000000000000000000000000914ed39f8b0d3291000000000000000000000000000000000000000000000000914ed39f8b0d329100",
          "blockHash": "0x20d4d459c74b4392b28b02fb60d5dc75189dda781291f99d64aff7a7543bb0c4",
          "blockNumber": "0x6e2a41",
          "transactionHash": "0x45f9017bc27abfcc6f7931fb2515833f1caf946a14a481e4141afbf13314cf56",
          "transactionIndex": "0x2",
          "logIndex": "0x25",
          "removed": false
        },
        {
          "address": "0x0000baa0b1678229863c0a941c1056b83a1955f5",
          "topics": [
            "0xddf252ad1be2c89b69c2b068fc378daa952ba7f163c4a11628f55a4df523b3ef",
            "0x0000000000000000000000000000000000000000000000000000000000000000",
            "0x0000000000000000000000009c339bb827555ae214df17b78c1aa28acee183ce"
          ],
          "data": "0x0000000000000000000000000000000000000000000000000002802343e4cdbb",
          "blockHash": "0x20d4d459c74b4392b28b02fb60d5dc75189dda781291f99d64aff7a7543bb0c4",
          "blockNumber": "0x6e2a41",
          "transactionHash": "0x45f9017bc27abfcc6f7931fb2515833f1caf946a14a481e4141afbf13314cf56",
          "transactionIndex": "0x2",
          "logIndex": "0x26",
          "removed": false
        },
        {
          "address": "0x0000baa0b1678229863c0a941c1056b83a1955f5",
          "topics": [
            "0xddf252ad1be2c89b69c2b068fc378daa952ba7f163c4a11628f55a4df523b3ef",
            "0x0000000000000000000000000000000000000000000000000000000000000000",
            "0x00000000000000000000000034d13701c7af3cbf8c0b71de5bb556fa60ea73ac"
          ],
          "data": "0x00000000000000000000000000000000000000000000000000078069cbae6931",
          "blockHash": "0x20d4d459c74b4392b28b02fb60d5dc75189dda781291f99d64aff7a7543bb0c4",
          "blockNumber": "0x6e2a41",
          "transactionHash": "0x45f9017bc27abfcc6f7931fb2515833f1caf946a14a481e4141afbf13314cf56",
          "transactionIndex": "0x2",
          "logIndex": "0x27",
          "removed": false
        },
        {
          "address": "0x34d13701c7af3cbf8c0b71de5bb556fa60ea73ac",
          "topics": [
            "0xe367a96648d02811ced605ca0b93efb0b7fe59bda272f8179c454ea64133e756"
          ],
          "data": "0x000000000000000000000000000000000045dc63115640089f751fe05f1000000000000000000000000000000000000000000000000000000000000000000000",
          "blockHash": "0x20d4d459c74b4392b28b02fb60d5dc75189dda781291f99d64aff7a7543bb0c4",
          "blockNumber": "0x6e2a41",
          "transactionHash": "0x45f9017bc27abfcc6f7931fb2515833f1caf946a14a481e4141afbf13314cf56",
          "transactionIndex": "0x2",
          "logIndex": "0x28",
          "removed": false
        },
        {
          "address": "0xce9f80a0dcd51fb3dd4f0d6bec3afdcaea10c912",
          "topics": [
            "0xc454ee9b76c52f782a256af821b857ca6e125d1e3333bcede402fec2bed9600c"
          ],
          "data": "0x0000000000000000000000000000000000000000000000000de0b6b3a7640000",
          "blockHash": "0x20d4d459c74b4392b28b02fb60d5dc75189dda781291f99d64aff7a7543bb0c4",
          "blockNumber": "0x6e2a41",
          "transactionHash": "0x45f9017bc27abfcc6f7931fb2515833f1caf946a14a481e4141afbf13314cf56",
          "transactionIndex": "0x2",
          "logIndex": "0x29",
          "removed": false
        },
        {
          "address": "0xce9f80a0dcd51fb3dd4f0d6bec3afdcaea10c912",
          "topics": [
            "0x860f8d2f0c74dd487e89e2883e3b25b8159ce1e1b3433a291cba7b82c508f3bc"
          ],
          "data": "0x0000000000000000000000000000000000000000000000000000000068232ee3",
          "blockHash": "0x20d4d459c74b4392b28b02fb60d5dc75189dda781291f99d64aff7a7543bb0c4",
          "blockNumber": "0x6e2a41",
          "transactionHash": "0x45f9017bc27abfcc6f7931fb2515833f1caf946a14a481e4141afbf13314cf56",
          "transactionIndex": "0x2",
          "logIndex": "0x2a",
          "removed": false
        },
        {
          "address": "0x0000baa0b1678229863c0a941c1056b83a1955f5",
          "topics": [
            "0xddf252ad1be2c89b69c2b068fc378daa952ba7f163c4a11628f55a4df523b3ef",
            "0x000000000000000000000000a7f74ae7c467764b63574369377d1b34b193a8ed",
            "0x0000000000000000000000000000000000000000000000000000000000000000"
          ],
          "data": "0x000000000000000000000000000000000000000000000087105a29a6e0064475",
          "blockHash": "0x20d4d459c74b4392b28b02fb60d5dc75189dda781291f99d64aff7a7543bb0c4",
          "blockNumber": "0x6e2a41",
          "transactionHash": "0x45f9017bc27abfcc6f7931fb2515833f1caf946a14a481e4141afbf13314cf56",
          "transactionIndex": "0x2",
          "logIndex": "0x2b",
          "removed": false
        }
      ],
      "logsBloom": "0x2800002000000000140000001000000000000900000400000000000001000000000000200000020080000000200080000000000000000000060001000400002002800000000000000200218800204000200000200000100000000080000000000000000006000c00004000000000080000880000040220000020001000a000042402000000000000800201000000000000000000000000200000000000004000000000000000002000800004000000100000000000008000000000002000000000001082000000000000100080000002140000000000000004000002000020040000004001000401000000800190000000000001001000000000000000000000",
      "type": "0x2",
      "transactionHash": "0x45f9017bc27abfcc6f7931fb2515833f1caf946a14a481e4141afbf13314cf56",
      "transactionIndex": "0x2",
      "blockHash": "0x20d4d459c74b4392b28b02fb60d5dc75189dda781291f99d64aff7a7543bb0c4",
      "blockNumber": "0x6e2a41",
      "gasUsed": "0x1538aa",
      "effectiveGasPrice": "0x12e",
      "from": "0xa7f74ae7c467764b63574369377d1b34b193a8ed",
      "to": "0xce9f80a0dcd51fb3dd4f0d6bec3afdcaea10c912",
      "contractAddress": null,
      "l1BaseFeeScalar": "0x558",
      "l1BlobBaseFee": "0x1",
      "l1BlobBaseFeeScalar": "0xc5fc5",
      "l1Fee": "0xe7152337",
      "l1GasPrice": "0x69933350",
      "l1GasUsed": "0x640"
    }
  ],
  "libraries": [],
  "pending": [],
  "returns": {},
  "timestamp": 1747136258,
  "chain": 1923,
  "commit": "823f8312"
}